{
  "_format": "hh-sol-artifact-1",
  "contractName": "PledgeManager",
  "sourceName": "contracts/PledgeManager.sol",
  "abi": [
    {
      "inputs": [
        {
          "internalType": "address",
          "name": "_tokenFactory",
          "type": "address"
        },
        {
          "internalType": "address",
          "name": "_usdc",
          "type": "address"
        }
      ],
      "stateMutability": "nonpayable",
      "type": "constructor"
    },
    {
      "inputs": [
        {
          "internalType": "address",
          "name": "owner",
          "type": "address"
        }
      ],
      "name": "OwnableInvalidOwner",
      "type": "error"
    },
    {
      "inputs": [
        {
          "internalType": "address",
          "name": "account",
          "type": "address"
        }
      ],
      "name": "OwnableUnauthorizedAccount",
      "type": "error"
    },
    {
      "inputs": [],
      "name": "ReentrancyGuardReentrantCall",
      "type": "error"
    },
    {
      "anonymous": false,
      "inputs": [
        {
          "indexed": true,
          "internalType": "address",
          "name": "influencer",
          "type": "address"
        },
        {
          "indexed": false,
          "internalType": "uint256",
          "name": "timestamp",
          "type": "uint256"
        }
      ],
      "name": "InfluencerApproved",
      "type": "event"
    },
    {
      "anonymous": false,
      "inputs": [
        {
          "indexed": true,
          "internalType": "address",
          "name": "previousOwner",
          "type": "address"
        },
        {
          "indexed": true,
          "internalType": "address",
          "name": "newOwner",
          "type": "address"
        }
      ],
      "name": "OwnershipTransferred",
      "type": "event"
    },
    {
      "anonymous": false,
      "inputs": [
        {
          "indexed": true,
          "internalType": "address",
          "name": "influencer",
          "type": "address"
        },
        {
          "indexed": true,
          "internalType": "address",
          "name": "pledger",
          "type": "address"
        },
        {
          "indexed": false,
          "internalType": "uint256",
          "name": "ethAmount",
          "type": "uint256"
        },
        {
          "indexed": false,
          "internalType": "uint256",
          "name": "usdcAmount",
          "type": "uint256"
        },
        {
          "indexed": false,
          "internalType": "uint256",
          "name": "totalETH",
          "type": "uint256"
        },
        {
          "indexed": false,
          "internalType": "uint256",
          "name": "totalUSDC",
          "type": "uint256"
        }
      ],
      "name": "PledgeMade",
      "type": "event"
    },
    {
      "anonymous": false,
      "inputs": [
        {
          "indexed": true,
          "internalType": "address",
          "name": "influencer",
          "type": "address"
        },
        {
          "indexed": true,
          "internalType": "address",
          "name": "pledger",
          "type": "address"
        },
        {
          "indexed": false,
          "internalType": "uint256",
          "name": "ethAmount",
          "type": "uint256"
        },
        {
          "indexed": false,
          "internalType": "uint256",
          "name": "usdcAmount",
          "type": "uint256"
        }
      ],
      "name": "PledgeWithdrawn",
      "type": "event"
    },
    {
      "anonymous": false,
      "inputs": [
        {
          "indexed": true,
          "internalType": "address",
          "name": "influencer",
          "type": "address"
        },
        {
          "indexed": false,
          "internalType": "uint256",
          "name": "totalETH",
          "type": "uint256"
        },
        {
          "indexed": false,
          "internalType": "uint256",
          "name": "totalUSDC",
          "type": "uint256"
        },
        {
          "indexed": false,
          "internalType": "uint256",
          "name": "timestamp",
          "type": "uint256"
        }
      ],
      "name": "ThresholdReached",
      "type": "event"
    },
    {
      "anonymous": false,
      "inputs": [
        {
          "indexed": true,
          "internalType": "address",
          "name": "influencer",
          "type": "address"
        },
        {
          "indexed": false,
          "internalType": "uint256",
          "name": "newETHThreshold",
          "type": "uint256"
        },
        {
          "indexed": false,
          "internalType": "uint256",
          "name": "newUSDCThreshold",
          "type": "uint256"
        }
      ],
      "name": "ThresholdUpdated",
      "type": "event"
    },
    {
      "anonymous": false,
      "inputs": [
        {
          "indexed": true,
          "internalType": "address",
          "name": "influencer",
          "type": "address"
        },
        {
          "indexed": true,
          "internalType": "address",
          "name": "tokenAddress",
          "type": "address"
        },
        {
          "indexed": false,
          "internalType": "uint256",
          "name": "totalRaisedETH",
          "type": "uint256"
        },
        {
          "indexed": false,
          "internalType": "uint256",
          "name": "totalRaisedUSDC",
          "type": "uint256"
        },
        {
          "indexed": false,
          "internalType": "uint256",
          "name": "timestamp",
          "type": "uint256"
        }
      ],
      "name": "TokenLaunched",
      "type": "event"
    },
    {
      "inputs": [
        {
          "internalType": "uint256",
          "name": "",
          "type": "uint256"
        }
      ],
      "name": "allInfluencers",
      "outputs": [
        {
          "internalType": "address",
          "name": "",
          "type": "address"
        }
      ],
      "stateMutability": "view",
      "type": "function"
    },
    {
      "inputs": [
        {
          "internalType": "address",
          "name": "influencer",
          "type": "address"
        }
      ],
      "name": "approveInfluencer",
      "outputs": [],
      "stateMutability": "nonpayable",
      "type": "function"
    },
    {
      "inputs": [
        {
          "internalType": "address",
          "name": "influencer",
          "type": "address"
        }
      ],
      "name": "emergencyPause",
      "outputs": [],
      "stateMutability": "nonpayable",
      "type": "function"
    },
    {
      "inputs": [],
      "name": "getAllInfluencers",
      "outputs": [
        {
          "internalType": "address[]",
          "name": "",
          "type": "address[]"
        }
      ],
      "stateMutability": "view",
      "type": "function"
    },
    {
      "inputs": [
        {
          "internalType": "address",
          "name": "influencer",
          "type": "address"
        }
      ],
      "name": "getInfluencerPledge",
      "outputs": [
        {
          "components": [
            {
              "internalType": "uint256",
              "name": "totalPledgedETH",
              "type": "uint256"
            },
            {
              "internalType": "uint256",
              "name": "totalPledgedUSDC",
              "type": "uint256"
            },
            {
              "internalType": "uint256",
              "name": "pledgeThresholdETH",
              "type": "uint256"
            },
            {
              "internalType": "uint256",
              "name": "pledgeThresholdUSDC",
              "type": "uint256"
            },
            {
              "internalType": "bool",
              "name": "isApproved",
              "type": "bool"
            },
            {
              "internalType": "bool",
              "name": "isLaunched",
              "type": "bool"
            },
            {
              "internalType": "address",
              "name": "tokenAddress",
              "type": "address"
            },
            {
              "internalType": "string",
              "name": "name",
              "type": "string"
            },
            {
              "internalType": "string",
              "name": "symbol",
              "type": "string"
            },
            {
              "internalType": "string",
              "name": "influencerName",
              "type": "string"
            },
            {
              "internalType": "uint256",
              "name": "createdAt",
              "type": "uint256"
            },
            {
              "internalType": "uint256",
              "name": "launchedAt",
              "type": "uint256"
            }
          ],
          "internalType": "struct PledgeManager.InfluencerPledge",
          "name": "",
          "type": "tuple"
        }
      ],
      "stateMutability": "view",
      "type": "function"
    },
    {
      "inputs": [
        {
          "internalType": "address",
          "name": "influencer",
          "type": "address"
        }
      ],
      "name": "getInfluencerPledgers",
      "outputs": [
        {
          "internalType": "address[]",
          "name": "",
          "type": "address[]"
        }
      ],
      "stateMutability": "view",
      "type": "function"
    },
    {
      "inputs": [
        {
          "internalType": "address",
          "name": "influencer",
          "type": "address"
        }
      ],
      "name": "getPledgeProgress",
      "outputs": [
        {
          "internalType": "uint256",
          "name": "totalETH",
          "type": "uint256"
        },
        {
          "internalType": "uint256",
          "name": "totalUSDC",
          "type": "uint256"
        },
        {
          "internalType": "uint256",
          "name": "thresholdETH",
          "type": "uint256"
        },
        {
          "internalType": "uint256",
          "name": "thresholdUSDC",
          "type": "uint256"
        },
        {
          "internalType": "uint256",
          "name": "pledgerCount",
          "type": "uint256"
        },
        {
          "internalType": "bool",
          "name": "thresholdMet",
          "type": "bool"
        },
        {
          "internalType": "bool",
          "name": "isApproved",
          "type": "bool"
        },
        {
          "internalType": "bool",
          "name": "isLaunched",
          "type": "bool"
        }
      ],
      "stateMutability": "view",
      "type": "function"
    },
    {
      "inputs": [
        {
          "internalType": "address",
          "name": "user",
          "type": "address"
        }
      ],
      "name": "getUserInfluencers",
      "outputs": [
        {
          "internalType": "address[]",
          "name": "",
          "type": "address[]"
        }
      ],
      "stateMutability": "view",
      "type": "function"
    },
    {
      "inputs": [
        {
          "internalType": "address",
          "name": "influencer",
          "type": "address"
        },
        {
          "internalType": "address",
          "name": "user",
          "type": "address"
        }
      ],
      "name": "getUserPledge",
      "outputs": [
        {
          "components": [
            {
              "internalType": "uint256",
              "name": "ethAmount",
              "type": "uint256"
            },
            {
              "internalType": "uint256",
              "name": "usdcAmount",
              "type": "uint256"
            },
            {
              "internalType": "bool",
              "name": "hasWithdrawn",
              "type": "bool"
            },
            {
              "internalType": "uint256",
              "name": "pledgedAt",
              "type": "uint256"
            }
          ],
          "internalType": "struct PledgeManager.UserPledge",
          "name": "",
          "type": "tuple"
        }
      ],
      "stateMutability": "view",
      "type": "function"
    },
    {
      "inputs": [
        {
          "internalType": "address",
          "name": "",
          "type": "address"
        },
        {
          "internalType": "uint256",
          "name": "",
          "type": "uint256"
        }
      ],
      "name": "influencerPledgers",
      "outputs": [
        {
          "internalType": "address",
          "name": "",
          "type": "address"
        }
      ],
      "stateMutability": "view",
      "type": "function"
    },
    {
      "inputs": [
        {
          "internalType": "address",
          "name": "",
          "type": "address"
        }
      ],
      "name": "influencerPledges",
      "outputs": [
        {
          "internalType": "uint256",
          "name": "totalPledgedETH",
          "type": "uint256"
        },
        {
          "internalType": "uint256",
          "name": "totalPledgedUSDC",
          "type": "uint256"
        },
        {
          "internalType": "uint256",
          "name": "pledgeThresholdETH",
          "type": "uint256"
        },
        {
          "internalType": "uint256",
          "name": "pledgeThresholdUSDC",
          "type": "uint256"
        },
        {
          "internalType": "bool",
          "name": "isApproved",
          "type": "bool"
        },
        {
          "internalType": "bool",
          "name": "isLaunched",
          "type": "bool"
        },
        {
          "internalType": "address",
          "name": "tokenAddress",
          "type": "address"
        },
        {
          "internalType": "string",
          "name": "name",
          "type": "string"
        },
        {
          "internalType": "string",
          "name": "symbol",
          "type": "string"
        },
        {
          "internalType": "string",
          "name": "influencerName",
          "type": "string"
        },
        {
          "internalType": "uint256",
          "name": "createdAt",
          "type": "uint256"
        },
        {
          "internalType": "uint256",
          "name": "launchedAt",
          "type": "uint256"
        }
      ],
      "stateMutability": "view",
      "type": "function"
    },
    {
      "inputs": [
        {
          "internalType": "address",
          "name": "",
          "type": "address"
        }
      ],
      "name": "isInfluencerRegistered",
      "outputs": [
        {
          "internalType": "bool",
          "name": "",
          "type": "bool"
        }
      ],
      "stateMutability": "view",
      "type": "function"
    },
    {
      "inputs": [
        {
          "internalType": "address",
          "name": "influencer",
          "type": "address"
        }
      ],
      "name": "isThresholdMet",
      "outputs": [
        {
          "internalType": "bool",
          "name": "",
          "type": "bool"
        }
      ],
      "stateMutability": "view",
      "type": "function"
    },
    {
      "inputs": [
        {
          "internalType": "address",
          "name": "influencer",
          "type": "address"
        }
      ],
      "name": "launchToken",
      "outputs": [],
      "stateMutability": "nonpayable",
      "type": "function"
    },
    {
      "inputs": [],
      "name": "owner",
      "outputs": [
        {
          "internalType": "address",
          "name": "",
          "type": "address"
        }
      ],
      "stateMutability": "view",
      "type": "function"
    },
    {
      "inputs": [
        {
          "internalType": "address",
          "name": "influencer",
          "type": "address"
        }
      ],
      "name": "pledgeToInfluencer",
      "outputs": [],
      "stateMutability": "payable",
      "type": "function"
    },
    {
      "inputs": [
        {
          "internalType": "address",
          "name": "influencer",
          "type": "address"
        },
        {
          "internalType": "uint256",
          "name": "amount",
          "type": "uint256"
        }
      ],
      "name": "pledgeUSDCToInfluencer",
      "outputs": [],
      "stateMutability": "nonpayable",
      "type": "function"
    },
    {
      "inputs": [],
      "name": "renounceOwnership",
      "outputs": [],
      "stateMutability": "nonpayable",
      "type": "function"
    },
    {
      "inputs": [
        {
          "internalType": "address",
          "name": "influencer",
          "type": "address"
        },
        {
          "internalType": "uint256",
          "name": "ethThreshold",
          "type": "uint256"
        },
        {
          "internalType": "uint256",
          "name": "usdcThreshold",
          "type": "uint256"
        },
        {
          "internalType": "string",
          "name": "name",
          "type": "string"
        },
        {
          "internalType": "string",
          "name": "symbol",
          "type": "string"
        },
        {
          "internalType": "string",
          "name": "influencerName",
          "type": "string"
        }
      ],
      "name": "setInfluencerThreshold",
      "outputs": [],
      "stateMutability": "nonpayable",
      "type": "function"
    },
    {
      "inputs": [],
      "name": "tokenFactory",
      "outputs": [
        {
          "internalType": "contract ITokenFactory",
          "name": "",
          "type": "address"
        }
      ],
      "stateMutability": "view",
      "type": "function"
    },
    {
      "inputs": [
        {
          "internalType": "address",
          "name": "newOwner",
          "type": "address"
        }
      ],
      "name": "transferOwnership",
      "outputs": [],
      "stateMutability": "nonpayable",
      "type": "function"
    },
    {
      "inputs": [],
      "name": "usdc",
      "outputs": [
        {
          "internalType": "contract IERC20",
          "name": "",
          "type": "address"
        }
      ],
      "stateMutability": "view",
      "type": "function"
    },
    {
      "inputs": [
        {
          "internalType": "address",
          "name": "",
          "type": "address"
        },
        {
          "internalType": "uint256",
          "name": "",
          "type": "uint256"
        }
      ],
      "name": "userInfluencers",
      "outputs": [
        {
          "internalType": "address",
          "name": "",
          "type": "address"
        }
      ],
      "stateMutability": "view",
      "type": "function"
    },
    {
      "inputs": [
        {
          "internalType": "address",
          "name": "",
          "type": "address"
        },
        {
          "internalType": "address",
          "name": "",
          "type": "address"
        }
      ],
      "name": "userPledges",
      "outputs": [
        {
          "internalType": "uint256",
          "name": "ethAmount",
          "type": "uint256"
        },
        {
          "internalType": "uint256",
          "name": "usdcAmount",
          "type": "uint256"
        },
        {
          "internalType": "bool",
          "name": "hasWithdrawn",
          "type": "bool"
        },
        {
          "internalType": "uint256",
          "name": "pledgedAt",
          "type": "uint256"
        }
      ],
      "stateMutability": "view",
      "type": "function"
    },
    {
      "inputs": [],
      "name": "withdrawPlatformFunds",
      "outputs": [],
      "stateMutability": "nonpayable",
      "type": "function"
    },
    {
      "inputs": [
        {
          "internalType": "address",
          "name": "influencer",
          "type": "address"
        }
      ],
      "name": "withdrawPledge",
      "outputs": [],
      "stateMutability": "nonpayable",
      "type": "function"
    },
    {
      "inputs": [],
      "name": "withdrawUSDC",
      "outputs": [],
      "stateMutability": "nonpayable",
      "type": "function"
    }
  ],
  "bytecode": "0x60c06040523480156200001157600080fd5b50604051620030be380380620030be8339810160408190526200003491620000f3565b600160005533806200006057604051631e4fbdf760e01b81526000600482015260240160405180910390fd5b6200006b8162000084565b506001600160a01b039182166080521660a0526200012b565b600180546001600160a01b038381166001600160a01b0319831681179093556040519116919082907f8be0079c531659141344cd1fd0a4f28419497f9722a3daafe3b4186f6b6457e090600090a35050565b80516001600160a01b0381168114620000ee57600080fd5b919050565b600080604083850312156200010757600080fd5b6200011283620000d6565b91506200012260208401620000d6565b90509250929050565b60805160a051612f436200017b600039600081816103280152818161079501528181611cd60152818161253b01526125f80152600081816105cc015281816117a4015261186f0152612f436000f3fe60806040526004361061019c5760003560e01c80637a3c8640116100ec578063b3043cf41161008a578063d8fc063d11610064578063d8fc063d146105a5578063e77772fe146105ba578063e9e20c76146105ee578063f2fde38b1461060e57600080fd5b8063b3043cf4146104fb578063b35c825414610510578063ce64cbbf1461058557600080fd5b806390cd5a02116100c657806390cd5a021461042d5780639380bf461461044d5780639868bcce146104ae578063a834ec5f146104c357600080fd5b80637a3c8640146103cf578063859b0ac3146103ef5780638da5cb5b1461040f57600080fd5b8063295f08d111610159578063482fa8d011610133578063482fa8d01461034a5780636fda8eb81461037a5780637041b48a1461039a578063715018a6146103ba57600080fd5b8063295f08d1146102ae5780632e64ba0d146102e65780633e413bee1461031657600080fd5b80630ee17463146101a1578063118623f3146101d75780631b241f11146101f95780631bd11512146102195780631e094f3a1461026e5780632654c8a81461029b575b600080fd5b3480156101ad57600080fd5b506101c16101bc366004612802565b61062e565b6040516101ce919061281f565b60405180910390f35b3480156101e357600080fd5b506101f76101f236600461286c565b6106a4565b005b34801561020557600080fd5b506101f761021436600461293b565b610a27565b34801561022557600080fd5b506102396102343660046129e8565b610c8e565b6040516101ce919081518152602080830151908201526040808301511515908201526060918201519181019190915260800190565b34801561027a57600080fd5b5061028e610289366004612802565b610d1e565b6040516101ce9190612a67565b6101f76102a9366004612802565b610fdf565b3480156102ba57600080fd5b506102ce6102c9366004612b4a565b61128a565b6040516001600160a01b0390911681526020016101ce565b3480156102f257600080fd5b50610306610301366004612802565b6112b4565b60405190151581526020016101ce565b34801561032257600080fd5b506102ce7f000000000000000000000000000000000000000000000000000000000000000081565b34801561035657600080fd5b50610306610365366004612802565b60076020526000908152604090205460ff1681565b34801561038657600080fd5b506102ce61039536600461286c565b611543565b3480156103a657600080fd5b506101f76103b5366004612802565b61157b565b3480156103c657600080fd5b506101f7611625565b3480156103db57600080fd5b506101f76103ea366004612802565b611639565b3480156103fb57600080fd5b506101c161040a366004612802565b6119b5565b34801561041b57600080fd5b506001546001600160a01b03166102ce565b34801561043957600080fd5b506101f7610448366004612802565b611a29565b34801561045957600080fd5b5061046d610468366004612802565b611dcf565b6040805198895260208901979097529587019490945260608601929092526080850152151560a0840152151560c0830152151560e0820152610100016101ce565b3480156104ba57600080fd5b506101c1612092565b3480156104cf57600080fd5b506104e36104de366004612802565b6120f4565b6040516101ce9c9b9a99989796959493929190612b63565b34801561050757600080fd5b506101f76122fb565b34801561051c57600080fd5b5061055f61052b3660046129e8565b60036020818152600093845260408085209091529183529120805460018201546002830154929093015490929160ff169084565b6040805194855260208501939093529015159183019190915260608201526080016101ce565b34801561059157600080fd5b506101f76105a0366004612802565b6123ee565b3480156105b157600080fd5b506101f761251b565b3480156105c657600080fd5b506102ce7f000000000000000000000000000000000000000000000000000000000000000081565b3480156105fa57600080fd5b506102ce61060936600461286c565b6126ed565b34801561061a57600080fd5b506101f7610629366004612802565b612709565b6001600160a01b03811660009081526005602090815260409182902080548351818402810184019094528084526060939283018282801561069857602002820191906000526020600020905b81546001600160a01b0316815260019091019060200180831161067a575b50505050509050919050565b6106ac612744565b6001600160a01b03821660009081526007602052604090205460ff166106ed5760405162461bcd60e51b81526004016106e490612bf5565b60405180910390fd5b6001600160a01b038216600090815260026020526040902060040154610100900460ff161561072e5760405162461bcd60e51b81526004016106e490612c2c565b600081116107735760405162461bcd60e51b81526020600482015260126024820152710416d6f756e74206d757374206265203e20360741b60448201526064016106e4565b6040516323b872dd60e01b8152336004820152306024820152604481018290527f00000000000000000000000000000000000000000000000000000000000000006001600160a01b0316906323b872dd906064016020604051808303816000875af11580156107e6573d6000803e3d6000fd5b505050506040513d601f19601f8201168201806040525081019061080a9190612c5c565b61084d5760405162461bcd60e51b81526020600482015260146024820152731554d110c81d1c985b9cd9995c8819985a5b195960621b60448201526064016106e4565b6001600160a01b03821660009081526003602090815260408083203384529091529020805415801561088157506001810154155b156108ee576001600160a01b0383166000818152600460209081526040808320805460018082018355918552838520018054336001600160a01b03199182168117909255908552600584529184208054918201815584529190922001805490911690911790554260038201555b818160010160008282546109029190612c94565b90915550506001600160a01b03831660009081526002602052604081206001018054849290610932908490612c94565b90915550506001600160a01b0383166000818152600260209081526040808320805460019091015482519485529284018790529083015260608201523391907f9bd196e8df4910f8a33d8a82ae1039870792a2ea75f3b7f5c1043f67fbd3c0249060800160405180910390a36109a7836112b4565b15610a18576001600160a01b03831660008181526002602052604090819020805460019091015491517f6b092d98aa8d00805189c33a498fac259603cd69d281fcc567808b651d8c3a3a92610a0f929142909283526020830191909152604082015260600190565b60405180910390a25b50610a236001600055565b5050565b610a2f61276e565b6001600160a01b038616610a855760405162461bcd60e51b815260206004820152601a60248201527f496e76616c696420696e666c75656e636572206164647265737300000000000060448201526064016106e4565b6000851180610a945750600084115b610aeb5760405162461bcd60e51b815260206004820152602260248201527f4174206c65617374206f6e65207468726573686f6c64206d757374206265203e604482015261020360f41b60648201526084016106e4565b6001600160a01b038616600090815260026020526040902060040154610100900460ff1615610b2c5760405162461bcd60e51b81526004016106e490612c2c565b6001600160a01b03861660009081526007602052604090205460ff16610bc0576006805460018082019092557ff652222313e28459528d920b65115c16c04f3efc82aaedc97be59f3f377c0d3f0180546001600160a01b0319166001600160a01b0389169081179091556000908152600760209081526040808320805460ff19169094179093556002905220426008909101555b6001600160a01b038616600090815260026020819052604090912090810186905560038101859055600501610bf58482612d30565b506001600160a01b0386166000908152600260205260409020600601610c1b8382612d30565b506001600160a01b0386166000908152600260205260409020600701610c418282612d30565b5060408051868152602081018690526001600160a01b038816917f249fd5fdc7ce39ccac456eaa5ab294c64fb6f518db9555154897318aaa308b4f910160405180910390a2505050505050565b610cbb60405180608001604052806000815260200160008152602001600015158152602001600081525090565b506001600160a01b038083166000908152600360208181526040808420948616845293815291839020835160808101855281548152600182015493810193909352600281015460ff16151593830193909352919091015460608201525b92915050565b610d8f6040518061018001604052806000815260200160008152602001600081526020016000815260200160001515815260200160001515815260200160006001600160a01b0316815260200160608152602001606081526020016060815260200160008152602001600081525090565b6001600160a01b0380831660009081526002602081815260409283902083516101808101855281548152600182015492810192909252918201549281019290925260038101546060830152600481015460ff80821615156080850152610100820416151560a084015262010000900490921660c082015260058201805491929160e084019190610e1e90612ca7565b80601f0160208091040260200160405190810160405280929190818152602001828054610e4a90612ca7565b8015610e975780601f10610e6c57610100808354040283529160200191610e97565b820191906000526020600020905b815481529060010190602001808311610e7a57829003601f168201915b50505050508152602001600682018054610eb090612ca7565b80601f0160208091040260200160405190810160405280929190818152602001828054610edc90612ca7565b8015610f295780601f10610efe57610100808354040283529160200191610f29565b820191906000526020600020905b815481529060010190602001808311610f0c57829003601f168201915b50505050508152602001600782018054610f4290612ca7565b80601f0160208091040260200160405190810160405280929190818152602001828054610f6e90612ca7565b8015610fbb5780601f10610f9057610100808354040283529160200191610fbb565b820191906000526020600020905b815481529060010190602001808311610f9e57829003601f168201915b50505050508152602001600882015481526020016009820154815250509050919050565b610fe7612744565b6001600160a01b03811660009081526007602052604090205460ff1661101f5760405162461bcd60e51b81526004016106e490612bf5565b6001600160a01b038116600090815260026020526040902060040154610100900460ff16156110605760405162461bcd60e51b81526004016106e490612c2c565b600034116110b05760405162461bcd60e51b815260206004820152601760248201527f4d7573742073656e642045544820746f20706c6564676500000000000000000060448201526064016106e4565b6001600160a01b0381166000908152600360209081526040808320338452909152902080541580156110e457506001810154155b15611151576001600160a01b0382166000818152600460209081526040808320805460018082018355918552838520018054336001600160a01b03199182168117909255908552600584529184208054918201815584529190922001805490911690911790554260038201555b348160000160008282546111659190612c94565b90915550506001600160a01b03821660009081526002602052604081208054349290611192908490612c94565b90915550506001600160a01b038216600081815260026020908152604080832080546001909101548251348152938401949094529082015260608101919091523391907f9bd196e8df4910f8a33d8a82ae1039870792a2ea75f3b7f5c1043f67fbd3c0249060800160405180910390a361120b826112b4565b1561127c576001600160a01b03821660008181526002602052604090819020805460019091015491517f6b092d98aa8d00805189c33a498fac259603cd69d281fcc567808b651d8c3a3a92611273929142909283526020830191909152604082015260600190565b60405180910390a25b506112876001600055565b50565b6006818154811061129a57600080fd5b6000918252602090912001546001600160a01b0316905081565b6001600160a01b03808216600090815260026020818152604080842081516101808101835281548152600182015493810193909352928301549082015260038201546060820152600482015460ff80821615156080840152610100820416151560a083015262010000900490931660c08401526005810180549293849390929160e084019161134290612ca7565b80601f016020809104026020016040519081016040528092919081815260200182805461136e90612ca7565b80156113bb5780601f10611390576101008083540402835291602001916113bb565b820191906000526020600020905b81548152906001019060200180831161139e57829003601f168201915b505050505081526020016006820180546113d490612ca7565b80601f016020809104026020016040519081016040528092919081815260200182805461140090612ca7565b801561144d5780601f106114225761010080835404028352916020019161144d565b820191906000526020600020905b81548152906001019060200180831161143057829003601f168201915b5050505050815260200160078201805461146690612ca7565b80601f016020809104026020016040519081016040528092919081815260200182805461149290612ca7565b80156114df5780601f106114b4576101008083540402835291602001916114df565b820191906000526020600020905b8154815290600101906020018083116114c257829003601f168201915b50505050508152602001600882015481526020016009820154815250509050806040015181600001511015801561151a575060008160400151115b8061153c5750806060015181602001511015801561153c575060008160600151115b9392505050565b6004602052816000526040600020818154811061155f57600080fd5b6000918252602090912001546001600160a01b03169150829050565b61158361276e565b6001600160a01b03811660009081526007602052604090205460ff166115bb5760405162461bcd60e51b81526004016106e490612bf5565b6001600160a01b038116600090815260026020526040902060040154610100900460ff16156115fc5760405162461bcd60e51b81526004016106e490612c2c565b6001600160a01b0316600090815260026020819052604090912060001991810182905560030155565b61162d61276e565b611637600061279b565b565b61164161276e565b611649612744565b6001600160a01b03811660009081526007602052604090205460ff166116815760405162461bcd60e51b81526004016106e490612bf5565b6001600160a01b03811660009081526002602052604090206004015460ff166116ec5760405162461bcd60e51b815260206004820152601760248201527f496e666c75656e636572206e6f7420617070726f76656400000000000000000060448201526064016106e4565b6001600160a01b038116600090815260026020526040902060040154610100900460ff161561172d5760405162461bcd60e51b81526004016106e490612c2c565b611736816112b4565b6117765760405162461bcd60e51b8152602060048201526011602482015270151a1c995cda1bdb19081b9bdd081b595d607a1b60448201526064016106e4565b6001600160a01b03808216600090815260026020908152604080832081516337382d3960e21b8152915190947f0000000000000000000000000000000000000000000000000000000000000000169263dce0b4e492600480820193918290030181865afa1580156117eb573d6000803e3d6000fd5b505050506040513d601f19601f8201168201806040525081019061180f9190612df0565b90508047101561186b5760405162461bcd60e51b815260206004820152602160248201527f496e73756666696369656e742045544820666f72206372656174696f6e2066656044820152606560f81b60648201526084016106e4565b60007f00000000000000000000000000000000000000000000000000000000000000006001600160a01b03166350bd8efd838560050186600601876007018969d3c21bcecceda10000006040518763ffffffff1660e01b81526004016118d5959493929190612e86565b60206040518083038185885af11580156118f3573d6000803e3d6000fd5b50505050506040513d601f19601f820116820180604052508101906119189190612edd565b6004840180546001600160a01b03808416620100008102610100600160b01b031990931692909217610100179092554260098701819055865460018801546040519596509294938916937f9838b14fedd7d720de7b5c6dfc464bdb9033421de06324db696d22d998f78c32936119a09390919283526020830191909152604082015260600190565b60405180910390a35050506112876001600055565b6001600160a01b038116600090815260046020908152604091829020805483518184028101840190945280845260609392830182828015610698576020028201919060005260206000209081546001600160a01b0316815260019091019060200180831161067a5750505050509050919050565b611a31612744565b6001600160a01b03811660009081526007602052604090205460ff16611a695760405162461bcd60e51b81526004016106e490612bf5565b6001600160a01b038116600090815260026020526040902060040154610100900460ff1615611aeb5760405162461bcd60e51b815260206004820152602860248201527f546f6b656e20616c7265616479206c61756e63686564202d2063616e6e6f7420604482015267776974686472617760c01b60648201526084016106e4565b6001600160a01b03811660009081526003602090815260408083203384529091529020600281015460ff1615611b575760405162461bcd60e51b815260206004820152601160248201527020b63932b0b23c903bb4ba34323930bbb760791b60448201526064016106e4565b8054151580611b6a575060008160010154115b611ba85760405162461bcd60e51b815260206004820152600f60248201526e139bc81c1b195919d948199bdd5b99608a1b60448201526064016106e4565b80546001808301546002808501805460ff19169093179092556001600160a01b038516600090815260209290925260408220805491928492611beb908490612efa565b90915550506001600160a01b03841660009081526002602052604081206001018054839290611c1b908490612efa565b90915550508115611cb457604051600090339084908381818185875af1925050503d8060008114611c68576040519150601f19603f3d011682016040523d82523d6000602084013e611c6d565b606091505b5050905080611cb25760405162461bcd60e51b8152602060048201526011602482015270115512081c99599d5b990819985a5b1959607a1b60448201526064016106e4565b505b8015611d8c5760405163a9059cbb60e01b8152336004820152602481018290527f00000000000000000000000000000000000000000000000000000000000000006001600160a01b03169063a9059cbb906044016020604051808303816000875af1158015611d27573d6000803e3d6000fd5b505050506040513d601f19601f82011682018060405250810190611d4b9190612c5c565b611d8c5760405162461bcd60e51b81526020600482015260126024820152711554d110c81c99599d5b990819985a5b195960721b60448201526064016106e4565b604080518381526020810183905233916001600160a01b038716917f10332bab7036c1f0645356fcf146d081497cb361bf98e5790ad6491ad6c38a9191016119a0565b6001600160a01b03808216600090815260026020818152604080842081516101808101835281548152600182015493810193909352928301549082015260038201546060820152600482015460ff80821615156080840152610100820416151560a083015262010000900490931660c08401526005810180549293849384938493849384938493849384939260e084019190611e6a90612ca7565b80601f0160208091040260200160405190810160405280929190818152602001828054611e9690612ca7565b8015611ee35780601f10611eb857610100808354040283529160200191611ee3565b820191906000526020600020905b815481529060010190602001808311611ec657829003601f168201915b50505050508152602001600682018054611efc90612ca7565b80601f0160208091040260200160405190810160405280929190818152602001828054611f2890612ca7565b8015611f755780601f10611f4a57610100808354040283529160200191611f75565b820191906000526020600020905b815481529060010190602001808311611f5857829003601f168201915b50505050508152602001600782018054611f8e90612ca7565b80601f0160208091040260200160405190810160405280929190818152602001828054611fba90612ca7565b80156120075780601f10611fdc57610100808354040283529160200191612007565b820191906000526020600020905b815481529060010190602001808311611fea57829003601f168201915b505050505081526020016008820154815260200160098201548152505090508060000151816020015182604001518360600151600460008f6001600160a01b03166001600160a01b031681526020019081526020016000208054905061206c8f6112b4565b86608001518760a001519850985098509850985098509850985050919395975091939597565b606060068054806020026020016040519081016040528092919081815260200182805480156120ea57602002820191906000526020600020905b81546001600160a01b031681526001909101906020018083116120cc575b5050505050905090565b60026020819052600091825260409091208054600182015492820154600383015460048401546005850180549496959394929360ff808416946101008504909116936201000090046001600160a01b0316929061215090612ca7565b80601f016020809104026020016040519081016040528092919081815260200182805461217c90612ca7565b80156121c95780601f1061219e576101008083540402835291602001916121c9565b820191906000526020600020905b8154815290600101906020018083116121ac57829003601f168201915b5050505050908060060180546121de90612ca7565b80601f016020809104026020016040519081016040528092919081815260200182805461220a90612ca7565b80156122575780601f1061222c57610100808354040283529160200191612257565b820191906000526020600020905b81548152906001019060200180831161223a57829003601f168201915b50505050509080600701805461226c90612ca7565b80601f016020809104026020016040519081016040528092919081815260200182805461229890612ca7565b80156122e55780601f106122ba576101008083540402835291602001916122e5565b820191906000526020600020905b8154815290600101906020018083116122c857829003601f168201915b505050505090806008015490806009015490508c565b61230361276e565b47806123465760405162461bcd60e51b81526020600482015260126024820152714e6f2045544820746f20776974686472617760701b60448201526064016106e4565b600061235a6001546001600160a01b031690565b6001600160a01b03168260405160006040518083038185875af1925050503d80600081146123a4576040519150601f19603f3d011682016040523d82523d6000602084013e6123a9565b606091505b5050905080610a235760405162461bcd60e51b815260206004820152601160248201527015da5d1a191c985dd85b0819985a5b1959607a1b60448201526064016106e4565b6123f661276e565b6001600160a01b03811660009081526007602052604090205460ff1661242e5760405162461bcd60e51b81526004016106e490612bf5565b6001600160a01b038116600090815260026020526040902060040154610100900460ff161561246f5760405162461bcd60e51b81526004016106e490612c2c565b612478816112b4565b6124b85760405162461bcd60e51b8152602060048201526011602482015270151a1c995cda1bdb19081b9bdd081b595d607a1b60448201526064016106e4565b6001600160a01b03811660008181526002602052604090819020600401805460ff19166001179055517f75965730aa22e4f4cdc1080cbbba07d073f84fc9d8372eb953ea88c839d1c892906125109042815260200190565b60405180910390a250565b61252361276e565b6040516370a0823160e01b81523060048201526000907f00000000000000000000000000000000000000000000000000000000000000006001600160a01b0316906370a0823190602401602060405180830381865afa15801561258a573d6000803e3d6000fd5b505050506040513d601f19601f820116820180604052508101906125ae9190612df0565b9050600081116125f65760405162461bcd60e51b81526020600482015260136024820152724e6f205553444320746f20776974686472617760681b60448201526064016106e4565b7f00000000000000000000000000000000000000000000000000000000000000006001600160a01b031663a9059cbb6126376001546001600160a01b031690565b6040516001600160e01b031960e084901b1681526001600160a01b039091166004820152602481018490526044016020604051808303816000875af1158015612684573d6000803e3d6000fd5b505050506040513d601f19601f820116820180604052508101906126a89190612c5c565b6112875760405162461bcd60e51b81526020600482015260166024820152751554d110c81dda5d1a191c985dd85b0819985a5b195960521b60448201526064016106e4565b6005602052816000526040600020818154811061155f57600080fd5b61271161276e565b6001600160a01b03811661273b57604051631e4fbdf760e01b8152600060048201526024016106e4565b6112878161279b565b60026000540361276757604051633ee5aeb560e01b815260040160405180910390fd5b6002600055565b6001546001600160a01b031633146116375760405163118cdaa760e01b81523360048201526024016106e4565b600180546001600160a01b038381166001600160a01b0319831681179093556040519116919082907f8be0079c531659141344cd1fd0a4f28419497f9722a3daafe3b4186f6b6457e090600090a35050565b6001600160a01b038116811461128757600080fd5b60006020828403121561281457600080fd5b813561153c816127ed565b6020808252825182820181905260009190848201906040850190845b818110156128605783516001600160a01b03168352928401929184019160010161283b565b50909695505050505050565b6000806040838503121561287f57600080fd5b823561288a816127ed565b946020939093013593505050565b634e487b7160e01b600052604160045260246000fd5b600082601f8301126128bf57600080fd5b813567ffffffffffffffff808211156128da576128da612898565b604051601f8301601f19908116603f0116810190828211818310171561290257612902612898565b8160405283815286602085880101111561291b57600080fd5b836020870160208301376000602085830101528094505050505092915050565b60008060008060008060c0878903121561295457600080fd5b863561295f816127ed565b95506020870135945060408701359350606087013567ffffffffffffffff8082111561298a57600080fd5b6129968a838b016128ae565b945060808901359150808211156129ac57600080fd5b6129b88a838b016128ae565b935060a08901359150808211156129ce57600080fd5b506129db89828a016128ae565b9150509295509295509295565b600080604083850312156129fb57600080fd5b8235612a06816127ed565b91506020830135612a16816127ed565b809150509250929050565b6000815180845260005b81811015612a4757602081850181015186830182015201612a2b565b506000602082860101526020601f19601f83011685010191505092915050565b602081528151602082015260208201516040820152604082015160608201526060820151608082015260006080830151612aa560a084018215159052565b5060a083015180151560c08401525060c08301516001600160a01b03811660e08401525060e08301516101806101008181860152612ae76101a0860184612a21565b9250808601519050601f19610120818786030181880152612b088584612a21565b945080880151925050610140818786030181880152612b278584612a21565b908801516101608881019190915290970151929095019190915250929392505050565b600060208284031215612b5c57600080fd5b5035919050565b60006101808e83528d60208401528c60408401528b60608401528a1515608084015289151560a084015260018060a01b03891660c08401528060e0840152612bad81840189612a21565b9050828103610100840152612bc28188612a21565b9050828103610120840152612bd78187612a21565b610140840195909552505061016001529a9950505050505050505050565b60208082526019908201527f496e666c75656e636572206e6f74207265676973746572656400000000000000604082015260600190565b602080825260169082015275151bdad95b88185b1c9958591e481b185d5b98da195960521b604082015260600190565b600060208284031215612c6e57600080fd5b8151801515811461153c57600080fd5b634e487b7160e01b600052601160045260246000fd5b80820180821115610d1857610d18612c7e565b600181811c90821680612cbb57607f821691505b602082108103612cdb57634e487b7160e01b600052602260045260246000fd5b50919050565b601f821115612d2b57600081815260208120601f850160051c81016020861015612d085750805b601f850160051c820191505b81811015612d2757828155600101612d14565b5050505b505050565b815167ffffffffffffffff811115612d4a57612d4a612898565b612d5e81612d588454612ca7565b84612ce1565b602080601f831160018114612d935760008415612d7b5750858301515b600019600386901b1c1916600185901b178555612d27565b600085815260208120601f198616915b82811015612dc257888601518255948401946001909101908401612da3565b5085821015612de05787850151600019600388901b60f8161c191681555b5050505050600190811b01905550565b600060208284031215612e0257600080fd5b5051919050565b60008154612e1681612ca7565b808552602060018381168015612e335760018114612e4d57612e7b565b60ff1985168884015283151560051b880183019550612e7b565b866000528260002060005b85811015612e735781548a8201860152908301908401612e58565b890184019650505b505050505092915050565b60a081526000612e9960a0830188612e09565b8281036020840152612eab8188612e09565b90508281036040840152612ebf8187612e09565b6001600160a01b039590951660608401525050608001529392505050565b600060208284031215612eef57600080fd5b815161153c816127ed565b81810381811115610d1857610d18612c7e56fea2646970667358221220061e3e1a06be700122110b57597de1176036a055793d9ada21ec47a3d1a26b7364736f6c63430008140033",
  "linkReferences": {},
  "deployedLinkReferences": {}
}