{
  "_format": "hh-sol-artifact-1",
  "contractName": "InfluencerToken",
  "sourceName": "contracts/TokenFactory.sol",
  "abi": [
    {
      "inputs": [
        {
          "internalType": "string",
          "name": "_name",
          "type": "string"
        },
        {
          "internalType": "string",
          "name": "_symbol",
          "type": "string"
        },
        {
          "internalType": "string",
          "name": "_influencerName",
          "type": "string"
        },
        {
          "internalType": "address",
          "name": "_influencerWallet",
          "type": "address"
        },
        {
          "internalType": "address",
          "name": "_treasury",
          "type": "address"
        },
        {
          "internalType": "address",
          "name": "_platform",
          "type": "address"
        },
        {
          "internalType": "uint256",
          "name": "_totalSupply",
          "type": "uint256"
        }
      ],
      "stateMutability": "nonpayable",
      "type": "constructor"
    },
    {
      "inputs": [
        {
          "internalType": "address",
          "name": "spender",
          "type": "address"
        },
        {
          "internalType": "uint256",
          "name": "allowance",
          "type": "uint256"
        },
        {
          "internalType": "uint256",
          "name": "needed",
          "type": "uint256"
        }
      ],
      "name": "ERC20InsufficientAllowance",
      "type": "error"
    },
    {
      "inputs": [
        {
          "internalType": "address",
          "name": "sender",
          "type": "address"
        },
        {
          "internalType": "uint256",
          "name": "balance",
          "type": "uint256"
        },
        {
          "internalType": "uint256",
          "name": "needed",
          "type": "uint256"
        }
      ],
      "name": "ERC20InsufficientBalance",
      "type": "error"
    },
    {
      "inputs": [
        {
          "internalType": "address",
          "name": "approver",
          "type": "address"
        }
      ],
      "name": "ERC20InvalidApprover",
      "type": "error"
    },
    {
      "inputs": [
        {
          "internalType": "address",
          "name": "receiver",
          "type": "address"
        }
      ],
      "name": "ERC20InvalidReceiver",
      "type": "error"
    },
    {
      "inputs": [
        {
          "internalType": "address",
          "name": "sender",
          "type": "address"
        }
      ],
      "name": "ERC20InvalidSender",
      "type": "error"
    },
    {
      "inputs": [
        {
          "internalType": "address",
          "name": "spender",
          "type": "address"
        }
      ],
      "name": "ERC20InvalidSpender",
      "type": "error"
    },
    {
      "inputs": [
        {
          "internalType": "address",
          "name": "owner",
          "type": "address"
        }
      ],
      "name": "OwnableInvalidOwner",
      "type": "error"
    },
    {
      "inputs": [
        {
          "internalType": "address",
          "name": "account",
          "type": "address"
        }
      ],
      "name": "OwnableUnauthorizedAccount",
      "type": "error"
    },
    {
      "anonymous": false,
      "inputs": [
        {
          "indexed": true,
          "internalType": "address",
          "name": "owner",
          "type": "address"
        },
        {
          "indexed": true,
          "internalType": "address",
          "name": "spender",
          "type": "address"
        },
        {
          "indexed": false,
          "internalType": "uint256",
          "name": "value",
          "type": "uint256"
        }
      ],
      "name": "Approval",
      "type": "event"
    },
    {
      "anonymous": false,
      "inputs": [
        {
          "indexed": true,
          "internalType": "address",
          "name": "previousOwner",
          "type": "address"
        },
        {
          "indexed": true,
          "internalType": "address",
          "name": "newOwner",
          "type": "address"
        }
      ],
      "name": "OwnershipTransferred",
      "type": "event"
    },
    {
      "anonymous": false,
      "inputs": [
        {
          "indexed": true,
          "internalType": "address",
          "name": "from",
          "type": "address"
        },
        {
          "indexed": true,
          "internalType": "address",
          "name": "to",
          "type": "address"
        },
        {
          "indexed": false,
          "internalType": "uint256",
          "name": "value",
          "type": "uint256"
        }
      ],
      "name": "Transfer",
      "type": "event"
    },
    {
      "inputs": [
        {
          "internalType": "address",
          "name": "owner",
          "type": "address"
        },
        {
          "internalType": "address",
          "name": "spender",
          "type": "address"
        }
      ],
      "name": "allowance",
      "outputs": [
        {
          "internalType": "uint256",
          "name": "",
          "type": "uint256"
        }
      ],
      "stateMutability": "view",
      "type": "function"
    },
    {
      "inputs": [
        {
          "internalType": "address",
          "name": "spender",
          "type": "address"
        },
        {
          "internalType": "uint256",
          "name": "value",
          "type": "uint256"
        }
      ],
      "name": "approve",
      "outputs": [
        {
          "internalType": "bool",
          "name": "",
          "type": "bool"
        }
      ],
      "stateMutability": "nonpayable",
      "type": "function"
    },
    {
      "inputs": [
        {
          "internalType": "address",
          "name": "account",
          "type": "address"
        }
      ],
      "name": "balanceOf",
      "outputs": [
        {
          "internalType": "uint256",
          "name": "",
          "type": "uint256"
        }
      ],
      "stateMutability": "view",
      "type": "function"
    },
    {
      "inputs": [],
      "name": "decimals",
      "outputs": [
        {
          "internalType": "uint8",
          "name": "",
          "type": "uint8"
        }
      ],
      "stateMutability": "view",
      "type": "function"
    },
    {
      "inputs": [],
      "name": "influencerName",
      "outputs": [
        {
          "internalType": "string",
          "name": "",
          "type": "string"
        }
      ],
      "stateMutability": "view",
      "type": "function"
    },
    {
      "inputs": [],
      "name": "influencerWallet",
      "outputs": [
        {
          "internalType": "address",
          "name": "",
          "type": "address"
        }
      ],
      "stateMutability": "view",
      "type": "function"
    },
    {
      "inputs": [],
      "name": "launchTime",
      "outputs": [
        {
          "internalType": "uint256",
          "name": "",
          "type": "uint256"
        }
      ],
      "stateMutability": "view",
      "type": "function"
    },
    {
      "inputs": [],
      "name": "name",
      "outputs": [
        {
          "internalType": "string",
          "name": "",
          "type": "string"
        }
      ],
      "stateMutability": "view",
      "type": "function"
    },
    {
      "inputs": [],
      "name": "owner",
      "outputs": [
        {
          "internalType": "address",
          "name": "",
          "type": "address"
        }
      ],
      "stateMutability": "view",
      "type": "function"
    },
    {
      "inputs": [],
      "name": "platform",
      "outputs": [
        {
          "internalType": "address",
          "name": "",
          "type": "address"
        }
      ],
      "stateMutability": "view",
      "type": "function"
    },
    {
      "inputs": [],
      "name": "renounceOwnership",
      "outputs": [],
      "stateMutability": "nonpayable",
      "type": "function"
    },
    {
      "inputs": [],
      "name": "symbol",
      "outputs": [
        {
          "internalType": "string",
          "name": "",
          "type": "string"
        }
      ],
      "stateMutability": "view",
      "type": "function"
    },
    {
      "inputs": [],
      "name": "totalSupply",
      "outputs": [
        {
          "internalType": "uint256",
          "name": "",
          "type": "uint256"
        }
      ],
      "stateMutability": "view",
      "type": "function"
    },
    {
      "inputs": [
        {
          "internalType": "address",
          "name": "to",
          "type": "address"
        },
        {
          "internalType": "uint256",
          "name": "value",
          "type": "uint256"
        }
      ],
      "name": "transfer",
      "outputs": [
        {
          "internalType": "bool",
          "name": "",
          "type": "bool"
        }
      ],
      "stateMutability": "nonpayable",
      "type": "function"
    },
    {
      "inputs": [
        {
          "internalType": "address",
          "name": "from",
          "type": "address"
        },
        {
          "internalType": "address",
          "name": "to",
          "type": "address"
        },
        {
          "internalType": "uint256",
          "name": "value",
          "type": "uint256"
        }
      ],
      "name": "transferFrom",
      "outputs": [
        {
          "internalType": "bool",
          "name": "",
          "type": "bool"
        }
      ],
      "stateMutability": "nonpayable",
      "type": "function"
    },
    {
      "inputs": [
        {
          "internalType": "address",
          "name": "newOwner",
          "type": "address"
        }
      ],
      "name": "transferOwnership",
      "outputs": [],
      "stateMutability": "nonpayable",
      "type": "function"
    },
    {
      "inputs": [],
      "name": "treasury",
      "outputs": [
        {
          "internalType": "address",
          "name": "",
          "type": "address"
        }
      ],
      "stateMutability": "view",
      "type": "function"
    }
  ],
  "bytecode": "0x60806040523480156200001157600080fd5b506040516200104e3803806200104e833981016040819052620000349162000419565b81878760036200004583826200057b565b5060046200005482826200057b565b5050506001600160a01b0381166200008757604051631e4fbdf760e01b8152600060048201526024015b60405180910390fd5b620000928162000174565b506006620000a186826200057b565b50600780546001600160a01b038087166001600160a01b03199283161790925560088054868416908316179055600980549285169290911691909117905542600a5560006064620000f483601e6200065d565b6200010091906200067d565b905060006064620001138460416200065d565b6200011f91906200067d565b905060006064620001328560056200065d565b6200013e91906200067d565b90506200014c8784620001c6565b620001588683620001c6565b620001648582620001c6565b50505050505050505050620006b6565b600580546001600160a01b038381166001600160a01b0319831681179093556040519116919082907f8be0079c531659141344cd1fd0a4f28419497f9722a3daafe3b4186f6b6457e090600090a35050565b6001600160a01b038216620001f25760405163ec442f0560e01b8152600060048201526024016200007e565b620002006000838362000204565b5050565b6001600160a01b03831662000233578060026000828254620002279190620006a0565b90915550620002a79050565b6001600160a01b03831660009081526020819052604090205481811015620002885760405163391434e360e21b81526001600160a01b038516600482015260248101829052604481018390526064016200007e565b6001600160a01b03841660009081526020819052604090209082900390555b6001600160a01b038216620002c557600280548290039055620002e4565b6001600160a01b03821660009081526020819052604090208054820190555b816001600160a01b0316836001600160a01b03167fddf252ad1be2c89b69c2b068fc378daa952ba7f163c4a11628f55a4df523b3ef836040516200032a91815260200190565b60405180910390a3505050565b634e487b7160e01b600052604160045260246000fd5b600082601f8301126200035f57600080fd5b81516001600160401b03808211156200037c576200037c62000337565b604051601f8301601f19908116603f01168101908282118183101715620003a757620003a762000337565b81604052838152602092508683858801011115620003c457600080fd5b600091505b83821015620003e85785820183015181830184015290820190620003c9565b600093810190920192909252949350505050565b80516001600160a01b03811681146200041457600080fd5b919050565b600080600080600080600060e0888a0312156200043557600080fd5b87516001600160401b03808211156200044d57600080fd5b6200045b8b838c016200034d565b985060208a01519150808211156200047257600080fd5b620004808b838c016200034d565b975060408a01519150808211156200049757600080fd5b50620004a68a828b016200034d565b955050620004b760608901620003fc565b9350620004c760808901620003fc565b9250620004d760a08901620003fc565b915060c0880151905092959891949750929550565b600181811c908216806200050157607f821691505b6020821081036200052257634e487b7160e01b600052602260045260246000fd5b50919050565b601f8211156200057657600081815260208120601f850160051c81016020861015620005515750805b601f850160051c820191505b8181101562000572578281556001016200055d565b5050505b505050565b81516001600160401b0381111562000597576200059762000337565b620005af81620005a88454620004ec565b8462000528565b602080601f831160018114620005e75760008415620005ce5750858301515b600019600386901b1c1916600185901b17855562000572565b600085815260208120601f198616915b828110156200061857888601518255948401946001909101908401620005f7565b5085821015620006375787850151600019600388901b60f8161c191681555b5050505050600190811b01905550565b634e487b7160e01b600052601160045260246000fd5b808202811582820484141762000677576200067762000647565b92915050565b6000826200069b57634e487b7160e01b600052601260045260246000fd5b500490565b8082018082111562000677576200067762000647565b61098880620006c66000396000f3fe608060405234801561001057600080fd5b506004361061010b5760003560e01c806370a08231116100a257806395d89b411161007157806395d89b41146102235780639bc70e7c1461022b578063a9059cbb14610233578063dd62ed3e14610246578063f2fde38b1461027f57600080fd5b806370a08231146101d6578063715018a6146101ff578063790ca413146102095780638da5cb5b1461021257600080fd5b8063313ce567116100de578063313ce567146101765780634bde38c8146101855780635c49a1dd146101b057806361d027b3146101c357600080fd5b806306fdde0314610110578063095ea7b31461012e57806318160ddd1461015157806323b872dd14610163575b600080fd5b610118610292565b60405161012591906107d2565b60405180910390f35b61014161013c36600461083c565b610324565b6040519015158152602001610125565b6002545b604051908152602001610125565b610141610171366004610866565b61033e565b60405160128152602001610125565b600954610198906001600160a01b031681565b6040516001600160a01b039091168152602001610125565b600754610198906001600160a01b031681565b600854610198906001600160a01b031681565b6101556101e43660046108a2565b6001600160a01b031660009081526020819052604090205490565b610207610362565b005b610155600a5481565b6005546001600160a01b0316610198565b610118610376565b610118610385565b61014161024136600461083c565b610413565b6101556102543660046108c4565b6001600160a01b03918216600090815260016020908152604080832093909416825291909152205490565b61020761028d3660046108a2565b610421565b6060600380546102a1906108f7565b80601f01602080910402602001604051908101604052809291908181526020018280546102cd906108f7565b801561031a5780601f106102ef5761010080835404028352916020019161031a565b820191906000526020600020905b8154815290600101906020018083116102fd57829003601f168201915b5050505050905090565b600033610332818585610464565b60019150505b92915050565b60003361034c858285610476565b6103578585856104f5565b506001949350505050565b61036a610554565b6103746000610581565b565b6060600480546102a1906108f7565b60068054610392906108f7565b80601f01602080910402602001604051908101604052809291908181526020018280546103be906108f7565b801561040b5780601f106103e05761010080835404028352916020019161040b565b820191906000526020600020905b8154815290600101906020018083116103ee57829003601f168201915b505050505081565b6000336103328185856104f5565b610429610554565b6001600160a01b03811661045857604051631e4fbdf760e01b8152600060048201526024015b60405180910390fd5b61046181610581565b50565b61047183838360016105d3565b505050565b6001600160a01b038381166000908152600160209081526040808320938616835292905220546000198110156104ef57818110156104e057604051637dc7a0d960e11b81526001600160a01b0384166004820152602481018290526044810183905260640161044f565b6104ef848484840360006105d3565b50505050565b6001600160a01b03831661051f57604051634b637e8f60e11b81526000600482015260240161044f565b6001600160a01b0382166105495760405163ec442f0560e01b81526000600482015260240161044f565b6104718383836106a8565b6005546001600160a01b031633146103745760405163118cdaa760e01b815233600482015260240161044f565b600580546001600160a01b038381166001600160a01b0319831681179093556040519116919082907f8be0079c531659141344cd1fd0a4f28419497f9722a3daafe3b4186f6b6457e090600090a35050565b6001600160a01b0384166105fd5760405163e602df0560e01b81526000600482015260240161044f565b6001600160a01b03831661062757604051634a1406b160e11b81526000600482015260240161044f565b6001600160a01b03808516600090815260016020908152604080832093871683529290522082905580156104ef57826001600160a01b0316846001600160a01b03167f8c5be1e5ebec7d5bd14f71427d1e84f3dd0314c0f7b2291e5b200ac8c7c3b9258460405161069a91815260200190565b60405180910390a350505050565b6001600160a01b0383166106d35780600260008282546106c89190610931565b909155506107459050565b6001600160a01b038316600090815260208190526040902054818110156107265760405163391434e360e21b81526001600160a01b0385166004820152602481018290526044810183905260640161044f565b6001600160a01b03841660009081526020819052604090209082900390555b6001600160a01b03821661076157600280548290039055610780565b6001600160a01b03821660009081526020819052604090208054820190555b816001600160a01b0316836001600160a01b03167fddf252ad1be2c89b69c2b068fc378daa952ba7f163c4a11628f55a4df523b3ef836040516107c591815260200190565b60405180910390a3505050565b600060208083528351808285015260005b818110156107ff578581018301518582016040015282016107e3565b506000604082860101526040601f19601f8301168501019250505092915050565b80356001600160a01b038116811461083757600080fd5b919050565b6000806040838503121561084f57600080fd5b61085883610820565b946020939093013593505050565b60008060006060848603121561087b57600080fd5b61088484610820565b925061089260208501610820565b9150604084013590509250925092565b6000602082840312156108b457600080fd5b6108bd82610820565b9392505050565b600080604083850312156108d757600080fd5b6108e083610820565b91506108ee60208401610820565b90509250929050565b600181811c9082168061090b57607f821691505b60208210810361092b57634e487b7160e01b600052602260045260246000fd5b50919050565b8082018082111561033857634e487b7160e01b600052601160045260246000fdfea2646970667358221220ee3962376bfd51cc142341347095ea067f00ca427b707cdd788f9d4d6b819c4964736f6c63430008140033",
  "linkReferences": {},
  "deployedLinkReferences": {}
}