{
  "_format": "hh-sol-artifact-1",
  "contractName": "TokenFactory",
  "sourceName": "contracts/TokenFactory.sol",
  "abi": [
    {
      "inputs": [
        {
          "internalType": "address",
          "name": "_treasury",
          "type": "address"
        },
        {
          "internalType": "address",
          "name": "_platform",
          "type": "address"
        },
        {
          "internalType": "uint256",
          "name": "_creationFee",
          "type": "uint256"
        }
      ],
      "stateMutability": "nonpayable",
      "type": "constructor"
    },
    {
      "inputs": [
        {
          "internalType": "address",
          "name": "owner",
          "type": "address"
        }
      ],
      "name": "OwnableInvalidOwner",
      "type": "error"
    },
    {
      "inputs": [
        {
          "internalType": "address",
          "name": "account",
          "type": "address"
        }
      ],
      "name": "OwnableUnauthorizedAccount",
      "type": "error"
    },
    {
      "inputs": [],
      "name": "ReentrancyGuardReentrantCall",
      "type": "error"
    },
    {
      "anonymous": false,
      "inputs": [
        {
          "indexed": false,
          "internalType": "address",
          "name": "treasury",
          "type": "address"
        },
        {
          "indexed": false,
          "internalType": "address",
          "name": "platform",
          "type": "address"
        },
        {
          "indexed": false,
          "internalType": "uint256",
          "name": "creationFee",
          "type": "uint256"
        }
      ],
      "name": "FactoryConfigUpdated",
      "type": "event"
    },
    {
      "anonymous": false,
      "inputs": [
        {
          "indexed": true,
          "internalType": "address",
          "name": "previousOwner",
          "type": "address"
        },
        {
          "indexed": true,
          "internalType": "address",
          "name": "newOwner",
          "type": "address"
        }
      ],
      "name": "OwnershipTransferred",
      "type": "event"
    },
    {
      "anonymous": false,
      "inputs": [
        {
          "indexed": true,
          "internalType": "address",
          "name": "tokenAddress",
          "type": "address"
        },
        {
          "indexed": false,
          "internalType": "string",
          "name": "name",
          "type": "string"
        },
        {
          "indexed": false,
          "internalType": "string",
          "name": "symbol",
          "type": "string"
        },
        {
          "indexed": false,
          "internalType": "string",
          "name": "influencerName",
          "type": "string"
        },
        {
          "indexed": true,
          "internalType": "address",
          "name": "influencerWallet",
          "type": "address"
        },
        {
          "indexed": false,
          "internalType": "uint256",
          "name": "totalSupply",
          "type": "uint256"
        },
        {
          "indexed": true,
          "internalType": "address",
          "name": "creator",
          "type": "address"
        }
      ],
      "name": "TokenCreated",
      "type": "event"
    },
    {
      "inputs": [
        {
          "internalType": "uint256",
          "name": "",
          "type": "uint256"
        }
      ],
      "name": "allTokens",
      "outputs": [
        {
          "internalType": "address",
          "name": "",
          "type": "address"
        }
      ],
      "stateMutability": "view",
      "type": "function"
    },
    {
      "inputs": [
        {
          "internalType": "string",
          "name": "_name",
          "type": "string"
        },
        {
          "internalType": "string",
          "name": "_symbol",
          "type": "string"
        },
        {
          "internalType": "string",
          "name": "_influencerName",
          "type": "string"
        },
        {
          "internalType": "address",
          "name": "_influencerWallet",
          "type": "address"
        },
        {
          "internalType": "uint256",
          "name": "_totalSupply",
          "type": "uint256"
        }
      ],
      "name": "createCoin",
      "outputs": [
        {
          "internalType": "address",
          "name": "",
          "type": "address"
        }
      ],
      "stateMutability": "payable",
      "type": "function"
    },
    {
      "inputs": [],
      "name": "creationFee",
      "outputs": [
        {
          "internalType": "uint256",
          "name": "",
          "type": "uint256"
        }
      ],
      "stateMutability": "view",
      "type": "function"
    },
    {
      "inputs": [],
      "name": "emergencyWithdraw",
      "outputs": [],
      "stateMutability": "nonpayable",
      "type": "function"
    },
    {
      "inputs": [],
      "name": "getAllCoins",
      "outputs": [
        {
          "internalType": "address[]",
          "name": "",
          "type": "address[]"
        }
      ],
      "stateMutability": "view",
      "type": "function"
    },
    {
      "inputs": [],
      "name": "getFactoryInfo",
      "outputs": [
        {
          "internalType": "address",
          "name": "_treasury",
          "type": "address"
        },
        {
          "internalType": "address",
          "name": "_platform",
          "type": "address"
        },
        {
          "internalType": "uint256",
          "name": "_creationFee",
          "type": "uint256"
        },
        {
          "internalType": "uint256",
          "name": "_totalTokens",
          "type": "uint256"
        }
      ],
      "stateMutability": "view",
      "type": "function"
    },
    {
      "inputs": [
        {
          "internalType": "uint256",
          "name": "_index",
          "type": "uint256"
        }
      ],
      "name": "getTokenByIndex",
      "outputs": [
        {
          "internalType": "address",
          "name": "",
          "type": "address"
        }
      ],
      "stateMutability": "view",
      "type": "function"
    },
    {
      "inputs": [],
      "name": "getTokenCount",
      "outputs": [
        {
          "internalType": "uint256",
          "name": "",
          "type": "uint256"
        }
      ],
      "stateMutability": "view",
      "type": "function"
    },
    {
      "inputs": [
        {
          "internalType": "address[]",
          "name": "_tokens",
          "type": "address[]"
        }
      ],
      "name": "getTokensInfo",
      "outputs": [
        {
          "internalType": "string[]",
          "name": "names",
          "type": "string[]"
        },
        {
          "internalType": "string[]",
          "name": "symbols",
          "type": "string[]"
        },
        {
          "internalType": "string[]",
          "name": "influencerNames",
          "type": "string[]"
        },
        {
          "internalType": "address[]",
          "name": "influencerWallets",
          "type": "address[]"
        },
        {
          "internalType": "uint256[]",
          "name": "totalSupplies",
          "type": "uint256[]"
        },
        {
          "internalType": "uint256[]",
          "name": "launchTimes",
          "type": "uint256[]"
        }
      ],
      "stateMutability": "view",
      "type": "function"
    },
    {
      "inputs": [
        {
          "internalType": "address",
          "name": "_token",
          "type": "address"
        }
      ],
      "name": "isFactoryToken",
      "outputs": [
        {
          "internalType": "bool",
          "name": "",
          "type": "bool"
        }
      ],
      "stateMutability": "view",
      "type": "function"
    },
    {
      "inputs": [],
      "name": "owner",
      "outputs": [
        {
          "internalType": "address",
          "name": "",
          "type": "address"
        }
      ],
      "stateMutability": "view",
      "type": "function"
    },
    {
      "inputs": [],
      "name": "platform",
      "outputs": [
        {
          "internalType": "address",
          "name": "",
          "type": "address"
        }
      ],
      "stateMutability": "view",
      "type": "function"
    },
    {
      "inputs": [],
      "name": "renounceOwnership",
      "outputs": [],
      "stateMutability": "nonpayable",
      "type": "function"
    },
    {
      "inputs": [
        {
          "internalType": "address",
          "name": "",
          "type": "address"
        }
      ],
      "name": "tokenCreator",
      "outputs": [
        {
          "internalType": "address",
          "name": "",
          "type": "address"
        }
      ],
      "stateMutability": "view",
      "type": "function"
    },
    {
      "inputs": [
        {
          "internalType": "address",
          "name": "newOwner",
          "type": "address"
        }
      ],
      "name": "transferOwnership",
      "outputs": [],
      "stateMutability": "nonpayable",
      "type": "function"
    },
    {
      "inputs": [],
      "name": "treasury",
      "outputs": [
        {
          "internalType": "address",
          "name": "",
          "type": "address"
        }
      ],
      "stateMutability": "view",
      "type": "function"
    },
    {
      "inputs": [
        {
          "internalType": "address",
          "name": "_treasury",
          "type": "address"
        },
        {
          "internalType": "address",
          "name": "_platform",
          "type": "address"
        },
        {
          "internalType": "uint256",
          "name": "_creationFee",
          "type": "uint256"
        }
      ],
      "name": "updateFactoryConfig",
      "outputs": [],
      "stateMutability": "nonpayable",
      "type": "function"
    }
  ],
  "bytecode": "0x60806040523480156200001157600080fd5b506040516200294938038062002949833981016040819052620000349162000111565b33806200005b57604051631e4fbdf760e01b81526000600482015260240160405180910390fd5b6200006681620000a4565b5060018055600280546001600160a01b039485166001600160a01b031991821617909155600380549390941692169190911790915560045562000152565b600080546001600160a01b038381166001600160a01b0319831681178455604051919092169283917f8be0079c531659141344cd1fd0a4f28419497f9722a3daafe3b4186f6b6457e09190a35050565b80516001600160a01b03811681146200010c57600080fd5b919050565b6000806000606084860312156200012757600080fd5b6200013284620000f4565b92506200014260208501620000f4565b9150604084015190509250925092565b6127e780620001626000396000f3fe608060405260043610620001135760003560e01c8063715018a611620000a1578063a4b7914e116200006c578063a4b7914e1462000313578063a4ec06201462000349578063db2e21bc1462000370578063dce0b4e41462000388578063f2fde38b14620003a057600080fd5b8063715018a61462000274578063782be8dd146200028c57806378a8956714620002d25780638da5cb5b14620002f357600080fd5b806361d027b311620000e257806361d027b314620001e1578063634282af1462000203578063644b7a4314620002285780636ce23103146200024d57600080fd5b806323774af2146200011857806346a0fe47146200016f5780634bde38c814620001a857806350bd8efd14620001ca575b600080fd5b3480156200012557600080fd5b50620001526200013736600462001122565b6006602052600090815260409020546001600160a01b031681565b6040516001600160a01b0390911681526020015b60405180910390f35b3480156200017c57600080fd5b50620001946200018e36600462001193565b620003c5565b60405162000166969594939291906200137a565b348015620001b557600080fd5b5060035462000152906001600160a01b031681565b62000152620001db3660046200148f565b62000939565b348015620001ee57600080fd5b5060025462000152906001600160a01b031681565b3480156200021057600080fd5b5062000152620002223660046200153e565b62000cb7565b3480156200023557600080fd5b5062000152620002473660046200153e565b62000ce2565b3480156200025a57600080fd5b50620002726200026c36600462001558565b62000d5f565b005b3480156200028157600080fd5b506200027262000e94565b3480156200029957600080fd5b50600254600354600454600554604080516001600160a01b03958616815294909316602085015291830152606082015260800162000166565b348015620002df57600080fd5b506005545b60405190815260200162000166565b3480156200030057600080fd5b506000546001600160a01b031662000152565b3480156200032057600080fd5b50620003386200033236600462001122565b62000eac565b604051901515815260200162000166565b3480156200035657600080fd5b506200036162000f1d565b6040516200016691906200159e565b3480156200037d57600080fd5b506200027262000f81565b3480156200039557600080fd5b50620002e460045481565b348015620003ad57600080fd5b5062000272620003bf36600462001122565b62001010565b6060806060806060806000875190508067ffffffffffffffff811115620003f057620003f062001149565b6040519080825280602002602001820160405280156200042557816020015b60608152602001906001900390816200040f5790505b5096508067ffffffffffffffff81111562000444576200044462001149565b6040519080825280602002602001820160405280156200047957816020015b6060815260200190600190039081620004635790505b5095508067ffffffffffffffff81111562000498576200049862001149565b604051908082528060200260200182016040528015620004cd57816020015b6060815260200190600190039081620004b75790505b5094508067ffffffffffffffff811115620004ec57620004ec62001149565b60405190808252806020026020018201604052801562000516578160200160208202803683370190505b5093508067ffffffffffffffff81111562000535576200053562001149565b6040519080825280602002602001820160405280156200055f578160200160208202803683370190505b5092508067ffffffffffffffff8111156200057e576200057e62001149565b604051908082528060200260200182016040528015620005a8578160200160208202803683370190505b50915060005b818110156200092e576000898281518110620005ce57620005ce620015b3565b60200260200101519050806001600160a01b03166306fdde036040518163ffffffff1660e01b8152600401600060405180830381865afa15801562000617573d6000803e3d6000fd5b505050506040513d6000823e601f3d908101601f19168201604052620006419190810190620015c9565b898381518110620006565762000656620015b3565b6020026020010181905250806001600160a01b03166395d89b416040518163ffffffff1660e01b8152600401600060405180830381865afa158015620006a0573d6000803e3d6000fd5b505050506040513d6000823e601f3d908101601f19168201604052620006ca9190810190620015c9565b888381518110620006df57620006df620015b3565b6020026020010181905250806001600160a01b0316639bc70e7c6040518163ffffffff1660e01b8152600401600060405180830381865afa15801562000729573d6000803e3d6000fd5b505050506040513d6000823e601f3d908101601f19168201604052620007539190810190620015c9565b878381518110620007685762000768620015b3565b6020026020010181905250806001600160a01b0316635c49a1dd6040518163ffffffff1660e01b8152600401602060405180830381865afa158015620007b2573d6000803e3d6000fd5b505050506040513d601f19601f82011682018060405250810190620007d8919062001640565b868381518110620007ed57620007ed620015b3565b60200260200101906001600160a01b031690816001600160a01b031681525050806001600160a01b03166318160ddd6040518163ffffffff1660e01b8152600401602060405180830381865afa1580156200084c573d6000803e3d6000fd5b505050506040513d601f19601f8201168201806040525081019062000872919062001660565b858381518110620008875762000887620015b3565b602002602001018181525050806001600160a01b031663790ca4136040518163ffffffff1660e01b8152600401602060405180830381865afa158015620008d2573d6000803e3d6000fd5b505050506040513d601f19601f82011682018060405250810190620008f8919062001660565b8483815181106200090d576200090d620015b3565b6020908102919091010152508062000925816200167a565b915050620005ae565b505091939550919395565b60006200094562001054565b6004543410156200099d5760405162461bcd60e51b815260206004820152601960248201527f496e73756666696369656e74206372656174696f6e206665650000000000000060448201526064015b60405180910390fd5b6001600160a01b038316620009f55760405162461bcd60e51b815260206004820152601960248201527f496e76616c696420696e666c75656e6365722077616c6c657400000000000000604482015260640162000994565b6000821162000a535760405162461bcd60e51b815260206004820152602360248201527f546f74616c20737570706c79206d75737420626520677265617465722074686160448201526206e20360ec1b606482015260840162000994565b600086511162000a9d5760405162461bcd60e51b81526020600482015260146024820152734e616d652063616e6e6f7420626520656d70747960601b604482015260640162000994565b600085511162000ae95760405162461bcd60e51b815260206004820152601660248201527553796d626f6c2063616e6e6f7420626520656d70747960501b604482015260640162000994565b600084511162000b3c5760405162461bcd60e51b815260206004820152601f60248201527f496e666c75656e636572206e616d652063616e6e6f7420626520656d70747900604482015260640162000994565b60025460035460405160009289928992899289926001600160a01b0391821692911690899062000b6c90620010fe565b62000b7e9796959493929190620016a2565b604051809103906000f08015801562000b9b573d6000803e3d6000fd5b5060058054600181019091557f036b6384b5eca791c62761152d0c79bb0604c104a5fb6f4eb0703f3154bb3db00180546001600160a01b0383166001600160a01b03199182168117909255600091825260066020526040909120805490911633179055905080341562000c44576002546040516001600160a01b03909116903480156108fc02916000818181858888f1935050505015801562000c42573d6000803e3d6000fd5b505b336001600160a01b0316856001600160a01b0316826001600160a01b03167f0e8cc4b226b8752d338d6e23e7e14f71e6dd2480faf8bfae44848d7fc596e3bf8b8b8b8a60405162000c99949392919062001712565b60405180910390a491505062000cae60018055565b95945050505050565b6005818154811062000cc857600080fd5b6000918252602090912001546001600160a01b0316905081565b600554600090821062000d2e5760405162461bcd60e51b8152602060048201526013602482015272496e646578206f7574206f6620626f756e647360681b604482015260640162000994565b6005828154811062000d445762000d44620015b3565b6000918252602090912001546001600160a01b031692915050565b62000d696200107f565b6001600160a01b03831662000dc15760405162461bcd60e51b815260206004820152601860248201527f496e76616c696420747265617375727920616464726573730000000000000000604482015260640162000994565b6001600160a01b03821662000e195760405162461bcd60e51b815260206004820152601860248201527f496e76616c696420706c6174666f726d20616464726573730000000000000000604482015260640162000994565b600280546001600160a01b038581166001600160a01b0319928316811790935560038054918616919092168117909155600483905560408051928352602083019190915281018290527f2251b3e6d9f74006827f9b31807bd8ba5d0b90a8179ce4db8313e7ef92d26a2c9060600160405180910390a1505050565b62000e9e6200107f565b62000eaa6000620010ae565b565b6000805b60055481101562000f1457826001600160a01b03166005828154811062000edb5762000edb620015b3565b6000918252602090912001546001600160a01b03160362000eff5750600192915050565b8062000f0b816200167a565b91505062000eb0565b50600092915050565b6060600580548060200260200160405190810160405280929190818152602001828054801562000f7757602002820191906000526020600020905b81546001600160a01b0316815260019091019060200180831162000f58575b5050505050905090565b62000f8b6200107f565b478062000fd25760405162461bcd60e51b81526020600482015260146024820152734e6f2066756e647320746f20776974686472617760601b604482015260640162000994565b600080546040516001600160a01b039091169183156108fc02918491818181858888f193505050501580156200100c573d6000803e3d6000fd5b5050565b6200101a6200107f565b6001600160a01b0381166200104657604051631e4fbdf760e01b81526000600482015260240162000994565b6200105181620010ae565b50565b6002600154036200107857604051633ee5aeb560e01b815260040160405180910390fd5b6002600155565b6000546001600160a01b0316331462000eaa5760405163118cdaa760e01b815233600482015260240162000994565b600080546001600160a01b038381166001600160a01b0319831681178455604051919092169283917f8be0079c531659141344cd1fd0a4f28419497f9722a3daafe3b4186f6b6457e09190a35050565b61104e806200176483390190565b6001600160a01b03811681146200105157600080fd5b6000602082840312156200113557600080fd5b813562001142816200110c565b9392505050565b634e487b7160e01b600052604160045260246000fd5b604051601f8201601f1916810167ffffffffffffffff811182821017156200118b576200118b62001149565b604052919050565b60006020808385031215620011a757600080fd5b823567ffffffffffffffff80821115620011c057600080fd5b818501915085601f830112620011d557600080fd5b813581811115620011ea57620011ea62001149565b8060051b9150620011fd8483016200115f565b81815291830184019184810190888411156200121857600080fd5b938501935b8385101562001246578435925062001235836200110c565b82825293850193908501906200121d565b98975050505050505050565b60005b838110156200126f57818101518382015260200162001255565b50506000910152565b600081518084526200129281602086016020860162001252565b601f01601f19169290920160200192915050565b600082825180855260208086019550808260051b84010181860160005b84811015620012f557601f19868403018952620012e283835162001278565b98840198925090830190600101620012c3565b5090979650505050505050565b600081518084526020808501945080840160005b838110156200133d5781516001600160a01b03168752958201959082019060010162001316565b509495945050505050565b600081518084526020808501945080840160005b838110156200133d578151875295820195908201906001016200135c565b60c0815260006200138f60c0830189620012a6565b8281036020840152620013a38189620012a6565b90508281036040840152620013b98188620012a6565b90508281036060840152620013cf818762001302565b90508281036080840152620013e5818662001348565b905082810360a0840152620013fb818562001348565b9998505050505050505050565b600067ffffffffffffffff82111562001425576200142562001149565b50601f01601f191660200190565b600082601f8301126200144557600080fd5b81356200145c620014568262001408565b6200115f565b8181528460208386010111156200147257600080fd5b816020850160208301376000918101602001919091529392505050565b600080600080600060a08688031215620014a857600080fd5b853567ffffffffffffffff80821115620014c157600080fd5b620014cf89838a0162001433565b96506020880135915080821115620014e657600080fd5b620014f489838a0162001433565b955060408801359150808211156200150b57600080fd5b506200151a8882890162001433565b93505060608601356200152d816200110c565b949793965091946080013592915050565b6000602082840312156200155157600080fd5b5035919050565b6000806000606084860312156200156e57600080fd5b83356200157b816200110c565b925060208401356200158d816200110c565b929592945050506040919091013590565b60208152600062001142602083018462001302565b634e487b7160e01b600052603260045260246000fd5b600060208284031215620015dc57600080fd5b815167ffffffffffffffff811115620015f457600080fd5b8201601f810184136200160657600080fd5b805162001617620014568262001408565b8181528560208385010111156200162d57600080fd5b62000cae82602083016020860162001252565b6000602082840312156200165357600080fd5b815162001142816200110c565b6000602082840312156200167357600080fd5b5051919050565b6000600182016200169b57634e487b7160e01b600052601160045260246000fd5b5060010190565b60e081526000620016b760e083018a62001278565b8281036020840152620016cb818a62001278565b90508281036040840152620016e1818962001278565b6001600160a01b039788166060850152958716608084015250509190931660a082015260c001919091529392505050565b60808152600062001727608083018762001278565b82810360208401526200173b818762001278565b9050828103604084015262001751818662001278565b9150508260608301529594505050505056fe60806040523480156200001157600080fd5b506040516200104e3803806200104e833981016040819052620000349162000419565b81878760036200004583826200057b565b5060046200005482826200057b565b5050506001600160a01b0381166200008757604051631e4fbdf760e01b8152600060048201526024015b60405180910390fd5b620000928162000174565b506006620000a186826200057b565b50600780546001600160a01b038087166001600160a01b03199283161790925560088054868416908316179055600980549285169290911691909117905542600a5560006064620000f483601e6200065d565b6200010091906200067d565b905060006064620001138460416200065d565b6200011f91906200067d565b905060006064620001328560056200065d565b6200013e91906200067d565b90506200014c8784620001c6565b620001588683620001c6565b620001648582620001c6565b50505050505050505050620006b6565b600580546001600160a01b038381166001600160a01b0319831681179093556040519116919082907f8be0079c531659141344cd1fd0a4f28419497f9722a3daafe3b4186f6b6457e090600090a35050565b6001600160a01b038216620001f25760405163ec442f0560e01b8152600060048201526024016200007e565b620002006000838362000204565b5050565b6001600160a01b03831662000233578060026000828254620002279190620006a0565b90915550620002a79050565b6001600160a01b03831660009081526020819052604090205481811015620002885760405163391434e360e21b81526001600160a01b038516600482015260248101829052604481018390526064016200007e565b6001600160a01b03841660009081526020819052604090209082900390555b6001600160a01b038216620002c557600280548290039055620002e4565b6001600160a01b03821660009081526020819052604090208054820190555b816001600160a01b0316836001600160a01b03167fddf252ad1be2c89b69c2b068fc378daa952ba7f163c4a11628f55a4df523b3ef836040516200032a91815260200190565b60405180910390a3505050565b634e487b7160e01b600052604160045260246000fd5b600082601f8301126200035f57600080fd5b81516001600160401b03808211156200037c576200037c62000337565b604051601f8301601f19908116603f01168101908282118183101715620003a757620003a762000337565b81604052838152602092508683858801011115620003c457600080fd5b600091505b83821015620003e85785820183015181830184015290820190620003c9565b600093810190920192909252949350505050565b80516001600160a01b03811681146200041457600080fd5b919050565b600080600080600080600060e0888a0312156200043557600080fd5b87516001600160401b03808211156200044d57600080fd5b6200045b8b838c016200034d565b985060208a01519150808211156200047257600080fd5b620004808b838c016200034d565b975060408a01519150808211156200049757600080fd5b50620004a68a828b016200034d565b955050620004b760608901620003fc565b9350620004c760808901620003fc565b9250620004d760a08901620003fc565b915060c0880151905092959891949750929550565b600181811c908216806200050157607f821691505b6020821081036200052257634e487b7160e01b600052602260045260246000fd5b50919050565b601f8211156200057657600081815260208120601f850160051c81016020861015620005515750805b601f850160051c820191505b8181101562000572578281556001016200055d565b5050505b505050565b81516001600160401b0381111562000597576200059762000337565b620005af81620005a88454620004ec565b8462000528565b602080601f831160018114620005e75760008415620005ce5750858301515b600019600386901b1c1916600185901b17855562000572565b600085815260208120601f198616915b828110156200061857888601518255948401946001909101908401620005f7565b5085821015620006375787850151600019600388901b60f8161c191681555b5050505050600190811b01905550565b634e487b7160e01b600052601160045260246000fd5b808202811582820484141762000677576200067762000647565b92915050565b6000826200069b57634e487b7160e01b600052601260045260246000fd5b500490565b8082018082111562000677576200067762000647565b61098880620006c66000396000f3fe608060405234801561001057600080fd5b506004361061010b5760003560e01c806370a08231116100a257806395d89b411161007157806395d89b41146102235780639bc70e7c1461022b578063a9059cbb14610233578063dd62ed3e14610246578063f2fde38b1461027f57600080fd5b806370a08231146101d6578063715018a6146101ff578063790ca413146102095780638da5cb5b1461021257600080fd5b8063313ce567116100de578063313ce567146101765780634bde38c8146101855780635c49a1dd146101b057806361d027b3146101c357600080fd5b806306fdde0314610110578063095ea7b31461012e57806318160ddd1461015157806323b872dd14610163575b600080fd5b610118610292565b60405161012591906107d2565b60405180910390f35b61014161013c36600461083c565b610324565b6040519015158152602001610125565b6002545b604051908152602001610125565b610141610171366004610866565b61033e565b60405160128152602001610125565b600954610198906001600160a01b031681565b6040516001600160a01b039091168152602001610125565b600754610198906001600160a01b031681565b600854610198906001600160a01b031681565b6101556101e43660046108a2565b6001600160a01b031660009081526020819052604090205490565b610207610362565b005b610155600a5481565b6005546001600160a01b0316610198565b610118610376565b610118610385565b61014161024136600461083c565b610413565b6101556102543660046108c4565b6001600160a01b03918216600090815260016020908152604080832093909416825291909152205490565b61020761028d3660046108a2565b610421565b6060600380546102a1906108f7565b80601f01602080910402602001604051908101604052809291908181526020018280546102cd906108f7565b801561031a5780601f106102ef5761010080835404028352916020019161031a565b820191906000526020600020905b8154815290600101906020018083116102fd57829003601f168201915b5050505050905090565b600033610332818585610464565b60019150505b92915050565b60003361034c858285610476565b6103578585856104f5565b506001949350505050565b61036a610554565b6103746000610581565b565b6060600480546102a1906108f7565b60068054610392906108f7565b80601f01602080910402602001604051908101604052809291908181526020018280546103be906108f7565b801561040b5780601f106103e05761010080835404028352916020019161040b565b820191906000526020600020905b8154815290600101906020018083116103ee57829003601f168201915b505050505081565b6000336103328185856104f5565b610429610554565b6001600160a01b03811661045857604051631e4fbdf760e01b8152600060048201526024015b60405180910390fd5b61046181610581565b50565b61047183838360016105d3565b505050565b6001600160a01b038381166000908152600160209081526040808320938616835292905220546000198110156104ef57818110156104e057604051637dc7a0d960e11b81526001600160a01b0384166004820152602481018290526044810183905260640161044f565b6104ef848484840360006105d3565b50505050565b6001600160a01b03831661051f57604051634b637e8f60e11b81526000600482015260240161044f565b6001600160a01b0382166105495760405163ec442f0560e01b81526000600482015260240161044f565b6104718383836106a8565b6005546001600160a01b031633146103745760405163118cdaa760e01b815233600482015260240161044f565b600580546001600160a01b038381166001600160a01b0319831681179093556040519116919082907f8be0079c531659141344cd1fd0a4f28419497f9722a3daafe3b4186f6b6457e090600090a35050565b6001600160a01b0384166105fd5760405163e602df0560e01b81526000600482015260240161044f565b6001600160a01b03831661062757604051634a1406b160e11b81526000600482015260240161044f565b6001600160a01b03808516600090815260016020908152604080832093871683529290522082905580156104ef57826001600160a01b0316846001600160a01b03167f8c5be1e5ebec7d5bd14f71427d1e84f3dd0314c0f7b2291e5b200ac8c7c3b9258460405161069a91815260200190565b60405180910390a350505050565b6001600160a01b0383166106d35780600260008282546106c89190610931565b909155506107459050565b6001600160a01b038316600090815260208190526040902054818110156107265760405163391434e360e21b81526001600160a01b0385166004820152602481018290526044810183905260640161044f565b6001600160a01b03841660009081526020819052604090209082900390555b6001600160a01b03821661076157600280548290039055610780565b6001600160a01b03821660009081526020819052604090208054820190555b816001600160a01b0316836001600160a01b03167fddf252ad1be2c89b69c2b068fc378daa952ba7f163c4a11628f55a4df523b3ef836040516107c591815260200190565b60405180910390a3505050565b600060208083528351808285015260005b818110156107ff578581018301518582016040015282016107e3565b506000604082860101526040601f19601f8301168501019250505092915050565b80356001600160a01b038116811461083757600080fd5b919050565b6000806040838503121561084f57600080fd5b61085883610820565b946020939093013593505050565b60008060006060848603121561087b57600080fd5b61088484610820565b925061089260208501610820565b9150604084013590509250925092565b6000602082840312156108b457600080fd5b6108bd82610820565b9392505050565b600080604083850312156108d757600080fd5b6108e083610820565b91506108ee60208401610820565b90509250929050565b600181811c9082168061090b57607f821691505b60208210810361092b57634e487b7160e01b600052602260045260246000fd5b50919050565b8082018082111561033857634e487b7160e01b600052601160045260246000fdfea2646970667358221220ee3962376bfd51cc142341347095ea067f00ca427b707cdd788f9d4d6b819c4964736f6c63430008140033a26469706673582212208f8ff9794cb5934b80f48f7050c9e4b4f801742a510c27395a1c0f8bc32840a264736f6c63430008140033",
  "linkReferences": {},
  "deployedLinkReferences": {}
}