{
  "_format": "hh-sol-artifact-1",
  "contractName": "LiquidityLocker",
  "sourceName": "contracts/LiquidityLocker.sol",
  "abi": [
    {
      "inputs": [],
      "stateMutability": "nonpayable",
      "type": "constructor"
    },
    {
      "inputs": [
        {
          "internalType": "address",
          "name": "owner",
          "type": "address"
        }
      ],
      "name": "OwnableInvalidOwner",
      "type": "error"
    },
    {
      "inputs": [
        {
          "internalType": "address",
          "name": "account",
          "type": "address"
        }
      ],
      "name": "OwnableUnauthorizedAccount",
      "type": "error"
    },
    {
      "inputs": [],
      "name": "ReentrancyGuardReentrantCall",
      "type": "error"
    },
    {
      "anonymous": false,
      "inputs": [
        {
          "indexed": true,
          "internalType": "address",
          "name": "previousOwner",
          "type": "address"
        },
        {
          "indexed": true,
          "internalType": "address",
          "name": "newOwner",
          "type": "address"
        }
      ],
      "name": "OwnershipTransferred",
      "type": "event"
    },
    {
      "anonymous": false,
      "inputs": [
        {
          "indexed": true,
          "internalType": "uint256",
          "name": "lockId",
          "type": "uint256"
        },
        {
          "indexed": true,
          "internalType": "address",
          "name": "token",
          "type": "address"
        },
        {
          "indexed": true,
          "internalType": "address",
          "name": "owner",
          "type": "address"
        },
        {
          "indexed": false,
          "internalType": "uint256",
          "name": "amount",
          "type": "uint256"
        },
        {
          "indexed": false,
          "internalType": "uint256",
          "name": "unlockTime",
          "type": "uint256"
        }
      ],
      "name": "TokensLocked",
      "type": "event"
    },
    {
      "anonymous": false,
      "inputs": [
        {
          "indexed": true,
          "internalType": "uint256",
          "name": "lockId",
          "type": "uint256"
        },
        {
          "indexed": true,
          "internalType": "address",
          "name": "token",
          "type": "address"
        },
        {
          "indexed": true,
          "internalType": "address",
          "name": "owner",
          "type": "address"
        },
        {
          "indexed": false,
          "internalType": "uint256",
          "name": "amount",
          "type": "uint256"
        }
      ],
      "name": "TokensWithdrawn",
      "type": "event"
    },
    {
      "inputs": [
        {
          "internalType": "uint256",
          "name": "lockId",
          "type": "uint256"
        }
      ],
      "name": "getLockInfo",
      "outputs": [
        {
          "components": [
            {
              "internalType": "address",
              "name": "token",
              "type": "address"
            },
            {
              "internalType": "address",
              "name": "owner",
              "type": "address"
            },
            {
              "internalType": "uint256",
              "name": "amount",
              "type": "uint256"
            },
            {
              "internalType": "uint256",
              "name": "unlockTime",
              "type": "uint256"
            },
            {
              "internalType": "bool",
              "name": "withdrawn",
              "type": "bool"
            }
          ],
          "internalType": "struct LiquidityLocker.LockInfo",
          "name": "",
          "type": "tuple"
        }
      ],
      "stateMutability": "view",
      "type": "function"
    },
    {
      "inputs": [
        {
          "internalType": "uint256",
          "name": "lockId",
          "type": "uint256"
        }
      ],
      "name": "getTimeUntilUnlock",
      "outputs": [
        {
          "internalType": "uint256",
          "name": "",
          "type": "uint256"
        }
      ],
      "stateMutability": "view",
      "type": "function"
    },
    {
      "inputs": [
        {
          "internalType": "address",
          "name": "user",
          "type": "address"
        }
      ],
      "name": "getUserLocks",
      "outputs": [
        {
          "internalType": "uint256[]",
          "name": "",
          "type": "uint256[]"
        }
      ],
      "stateMutability": "view",
      "type": "function"
    },
    {
      "inputs": [],
      "name": "lockCounter",
      "outputs": [
        {
          "internalType": "uint256",
          "name": "",
          "type": "uint256"
        }
      ],
      "stateMutability": "view",
      "type": "function"
    },
    {
      "inputs": [
        {
          "internalType": "address",
          "name": "token",
          "type": "address"
        },
        {
          "internalType": "uint256",
          "name": "amount",
          "type": "uint256"
        },
        {
          "internalType": "uint256",
          "name": "lockDuration",
          "type": "uint256"
        }
      ],
      "name": "lockTokens",
      "outputs": [
        {
          "internalType": "uint256",
          "name": "",
          "type": "uint256"
        }
      ],
      "stateMutability": "nonpayable",
      "type": "function"
    },
    {
      "inputs": [
        {
          "internalType": "uint256",
          "name": "",
          "type": "uint256"
        }
      ],
      "name": "locks",
      "outputs": [
        {
          "internalType": "address",
          "name": "token",
          "type": "address"
        },
        {
          "internalType": "address",
          "name": "owner",
          "type": "address"
        },
        {
          "internalType": "uint256",
          "name": "amount",
          "type": "uint256"
        },
        {
          "internalType": "uint256",
          "name": "unlockTime",
          "type": "uint256"
        },
        {
          "internalType": "bool",
          "name": "withdrawn",
          "type": "bool"
        }
      ],
      "stateMutability": "view",
      "type": "function"
    },
    {
      "inputs": [],
      "name": "owner",
      "outputs": [
        {
          "internalType": "address",
          "name": "",
          "type": "address"
        }
      ],
      "stateMutability": "view",
      "type": "function"
    },
    {
      "inputs": [],
      "name": "renounceOwnership",
      "outputs": [],
      "stateMutability": "nonpayable",
      "type": "function"
    },
    {
      "inputs": [
        {
          "internalType": "address",
          "name": "newOwner",
          "type": "address"
        }
      ],
      "name": "transferOwnership",
      "outputs": [],
      "stateMutability": "nonpayable",
      "type": "function"
    },
    {
      "inputs": [
        {
          "internalType": "address",
          "name": "",
          "type": "address"
        },
        {
          "internalType": "uint256",
          "name": "",
          "type": "uint256"
        }
      ],
      "name": "userLocks",
      "outputs": [
        {
          "internalType": "uint256",
          "name": "",
          "type": "uint256"
        }
      ],
      "stateMutability": "view",
      "type": "function"
    },
    {
      "inputs": [
        {
          "internalType": "uint256",
          "name": "lockId",
          "type": "uint256"
        }
      ],
      "name": "withdrawTokens",
      "outputs": [],
      "stateMutability": "nonpayable",
      "type": "function"
    }
  ],
  "bytecode": "0x608060405234801561001057600080fd5b50338061003757604051631e4fbdf760e01b81526000600482015260240160405180910390fd5b6100408161004a565b506001805561009a565b600080546001600160a01b038381166001600160a01b0319831681178455604051919092169283917f8be0079c531659141344cd1fd0a4f28419497f9722a3daafe3b4186f6b6457e09190a35050565b610ab4806100a96000396000f3fe608060405234801561001057600080fd5b50600436106100a95760003560e01c80638db564c2116100715780638db564c214610130578063a25983e514610139578063aa33fedb1461014c578063c9102afd1461015f578063f2fde38b14610242578063f4dadc611461025557600080fd5b806323a35de9146100ae5780632f6fe5f7146100d7578063315a095d146100f8578063715018a61461010d5780638da5cb5b14610115575b600080fd5b6100c16100bc36600461092c565b6102d7565b6040516100ce9190610947565b60405180910390f35b6100ea6100e536600461098b565b610343565b6040519081526020016100ce565b61010b61010636600461098b565b6103c3565b005b61010b61059a565b6000546040516001600160a01b0390911681526020016100ce565b6100ea60045481565b6100ea6101473660046109a4565b6105ae565b6100ea61015a3660046109d7565b6107fd565b6101f561016d36600461098b565b6040805160a08101825260008082526020820181905291810182905260608101829052608081019190915250600090815260026020818152604092839020835160a08101855281546001600160a01b039081168252600183015416928101929092529182015492810192909252600381015460608301526004015460ff161515608082015290565b6040516100ce919081516001600160a01b03908116825260208084015190911690820152604080830151908201526060808301519082015260809182015115159181019190915260a00190565b61010b61025036600461092c565b61082e565b6102a261026336600461098b565b6002602081905260009182526040909120805460018201549282015460038301546004909301546001600160a01b039283169490921692909160ff1685565b604080516001600160a01b0396871681529590941660208601529284019190915260608301521515608082015260a0016100ce565b6001600160a01b03811660009081526003602090815260409182902080548351818402810184019094528084526060939283018282801561033757602002820191906000526020600020905b815481526020019060010190808311610323575b50505050509050919050565b6000818152600260208181526040808420815160a08101835281546001600160a01b03908116825260018301541693810193909352928301549082015260038201546060820181905260049092015460ff16151560808201529042106103ac5750600092915050565b4281606001516103bc9190610a17565b9392505050565b6103cb610869565b600081815260026020526040902060018101546001600160a01b0316331461042a5760405162461bcd60e51b815260206004820152600d60248201526c2737ba103a34329037bbb732b960991b60448201526064015b60405180910390fd5b600481015460ff16156104735760405162461bcd60e51b815260206004820152601160248201527020b63932b0b23c903bb4ba34323930bbb760791b6044820152606401610421565b80600301544210156104bd5760405162461bcd60e51b8152602060048201526013602482015272151bdad95b9cc81cdd1a5b1b081b1bd8dad959606a1b6044820152606401610421565b6004818101805460ff191660011790558154600283015460405163a9059cbb60e01b8152339381019390935260248301526001600160a01b03169063a9059cbb906044016020604051808303816000875af1158015610520573d6000803e3d6000fd5b505050506040513d601f19601f820116820180604052508101906105449190610a30565b508054600282015460405190815233916001600160a01b03169084907f5db071cb9ca9123fd9158edb7aec7785f1bf14cf64c85989310c146e0e98a7d99060200160405180910390a45061059760018055565b50565b6105a2610893565b6105ac60006108c0565b565b60006105b8610869565b600083116106085760405162461bcd60e51b815260206004820152601d60248201527f416d6f756e74206d7573742062652067726561746572207468616e20300000006044820152606401610421565b600082116106645760405162461bcd60e51b8152602060048201526024808201527f4c6f636b206475726174696f6e206d75737420626520677265617465722074686044820152630616e20360e41b6064820152608401610421565b6040516323b872dd60e01b8152336004820152306024820152604481018490526001600160a01b038516906323b872dd906064016020604051808303816000875af11580156106b7573d6000803e3d6000fd5b505050506040513d601f19601f820116820180604052508101906106db9190610a30565b5060048054600091826106ed83610a52565b90915550905060006106ff8442610a6b565b6040805160a0810182526001600160a01b038981168083523360208085018281528587018d8152606087018981526000608089018181528d825260028087528b83209a518b546001600160a01b0319908116918c16919091178c5595516001808d01805490981691909b16179095559251938901939093555160038089019190915590516004909701805460ff1916971515979097179096558281529481528585208054948501815585529384902090920187905583518a8152928301859052939450929185917fdd17148ffeb69e95dbd8fee5b9a79df1fad7408e496cd1cdec4adf522527e90d910160405180910390a45090506103bc60018055565b6003602052816000526040600020818154811061081957600080fd5b90600052602060002001600091509150505481565b610836610893565b6001600160a01b03811661086057604051631e4fbdf760e01b815260006004820152602401610421565b610597816108c0565b60026001540361088c57604051633ee5aeb560e01b815260040160405180910390fd5b6002600155565b6000546001600160a01b031633146105ac5760405163118cdaa760e01b8152336004820152602401610421565b600080546001600160a01b038381166001600160a01b0319831681178455604051919092169283917f8be0079c531659141344cd1fd0a4f28419497f9722a3daafe3b4186f6b6457e09190a35050565b80356001600160a01b038116811461092757600080fd5b919050565b60006020828403121561093e57600080fd5b6103bc82610910565b6020808252825182820181905260009190848201906040850190845b8181101561097f57835183529284019291840191600101610963565b50909695505050505050565b60006020828403121561099d57600080fd5b5035919050565b6000806000606084860312156109b957600080fd5b6109c284610910565b95602085013595506040909401359392505050565b600080604083850312156109ea57600080fd5b6109f383610910565b946020939093013593505050565b634e487b7160e01b600052601160045260246000fd5b81810381811115610a2a57610a2a610a01565b92915050565b600060208284031215610a4257600080fd5b815180151581146103bc57600080fd5b600060018201610a6457610a64610a01565b5060010190565b80820180821115610a2a57610a2a610a0156fea264697066735822122041812bed00bf970f5870350bb598cf7f36a16953816d1e57be89233cd5f3e67c64736f6c63430008140033",
  "linkReferences": {},
  "deployedLinkReferences": {}
}