{
  "_format": "hh-sol-artifact-1",
  "contractName": "InfluencerToken",
  "sourceName": "contracts/InfluencerToken.sol",
  "abi": [
    {
      "inputs": [
        {
          "internalType": "string",
          "name": "name",
          "type": "string"
        },
        {
          "internalType": "string",
          "name": "symbol",
          "type": "string"
        },
        {
          "internalType": "address",
          "name": "_influencerWallet",
          "type": "address"
        },
        {
          "internalType": "address",
          "name": "_liquidityWallet",
          "type": "address"
        }
      ],
      "stateMutability": "nonpayable",
      "type": "constructor"
    },
    {
      "inputs": [
        {
          "internalType": "address",
          "name": "spender",
          "type": "address"
        },
        {
          "internalType": "uint256",
          "name": "allowance",
          "type": "uint256"
        },
        {
          "internalType": "uint256",
          "name": "needed",
          "type": "uint256"
        }
      ],
      "name": "ERC20InsufficientAllowance",
      "type": "error"
    },
    {
      "inputs": [
        {
          "internalType": "address",
          "name": "sender",
          "type": "address"
        },
        {
          "internalType": "uint256",
          "name": "balance",
          "type": "uint256"
        },
        {
          "internalType": "uint256",
          "name": "needed",
          "type": "uint256"
        }
      ],
      "name": "ERC20InsufficientBalance",
      "type": "error"
    },
    {
      "inputs": [
        {
          "internalType": "address",
          "name": "approver",
          "type": "address"
        }
      ],
      "name": "ERC20InvalidApprover",
      "type": "error"
    },
    {
      "inputs": [
        {
          "internalType": "address",
          "name": "receiver",
          "type": "address"
        }
      ],
      "name": "ERC20InvalidReceiver",
      "type": "error"
    },
    {
      "inputs": [
        {
          "internalType": "address",
          "name": "sender",
          "type": "address"
        }
      ],
      "name": "ERC20InvalidSender",
      "type": "error"
    },
    {
      "inputs": [
        {
          "internalType": "address",
          "name": "spender",
          "type": "address"
        }
      ],
      "name": "ERC20InvalidSpender",
      "type": "error"
    },
    {
      "inputs": [
        {
          "internalType": "address",
          "name": "owner",
          "type": "address"
        }
      ],
      "name": "OwnableInvalidOwner",
      "type": "error"
    },
    {
      "inputs": [
        {
          "internalType": "address",
          "name": "account",
          "type": "address"
        }
      ],
      "name": "OwnableUnauthorizedAccount",
      "type": "error"
    },
    {
      "anonymous": false,
      "inputs": [
        {
          "indexed": true,
          "internalType": "address",
          "name": "owner",
          "type": "address"
        },
        {
          "indexed": true,
          "internalType": "address",
          "name": "spender",
          "type": "address"
        },
        {
          "indexed": false,
          "internalType": "uint256",
          "name": "value",
          "type": "uint256"
        }
      ],
      "name": "Approval",
      "type": "event"
    },
    {
      "anonymous": false,
      "inputs": [
        {
          "indexed": true,
          "internalType": "address",
          "name": "previousOwner",
          "type": "address"
        },
        {
          "indexed": true,
          "internalType": "address",
          "name": "newOwner",
          "type": "address"
        }
      ],
      "name": "OwnershipTransferred",
      "type": "event"
    },
    {
      "anonymous": false,
      "inputs": [
        {
          "indexed": true,
          "internalType": "address",
          "name": "from",
          "type": "address"
        },
        {
          "indexed": true,
          "internalType": "address",
          "name": "to",
          "type": "address"
        },
        {
          "indexed": false,
          "internalType": "uint256",
          "name": "value",
          "type": "uint256"
        }
      ],
      "name": "Transfer",
      "type": "event"
    },
    {
      "inputs": [],
      "name": "INFLUENCER_ALLOCATION",
      "outputs": [
        {
          "internalType": "uint256",
          "name": "",
          "type": "uint256"
        }
      ],
      "stateMutability": "view",
      "type": "function"
    },
    {
      "inputs": [],
      "name": "LIQUIDITY_ALLOCATION",
      "outputs": [
        {
          "internalType": "uint256",
          "name": "",
          "type": "uint256"
        }
      ],
      "stateMutability": "view",
      "type": "function"
    },
    {
      "inputs": [],
      "name": "TOTAL_SUPPLY",
      "outputs": [
        {
          "internalType": "uint256",
          "name": "",
          "type": "uint256"
        }
      ],
      "stateMutability": "view",
      "type": "function"
    },
    {
      "inputs": [
        {
          "internalType": "address",
          "name": "owner",
          "type": "address"
        },
        {
          "internalType": "address",
          "name": "spender",
          "type": "address"
        }
      ],
      "name": "allowance",
      "outputs": [
        {
          "internalType": "uint256",
          "name": "",
          "type": "uint256"
        }
      ],
      "stateMutability": "view",
      "type": "function"
    },
    {
      "inputs": [
        {
          "internalType": "address",
          "name": "spender",
          "type": "address"
        },
        {
          "internalType": "uint256",
          "name": "value",
          "type": "uint256"
        }
      ],
      "name": "approve",
      "outputs": [
        {
          "internalType": "bool",
          "name": "",
          "type": "bool"
        }
      ],
      "stateMutability": "nonpayable",
      "type": "function"
    },
    {
      "inputs": [
        {
          "internalType": "address",
          "name": "account",
          "type": "address"
        }
      ],
      "name": "balanceOf",
      "outputs": [
        {
          "internalType": "uint256",
          "name": "",
          "type": "uint256"
        }
      ],
      "stateMutability": "view",
      "type": "function"
    },
    {
      "inputs": [
        {
          "internalType": "uint256",
          "name": "amount",
          "type": "uint256"
        }
      ],
      "name": "burn",
      "outputs": [],
      "stateMutability": "nonpayable",
      "type": "function"
    },
    {
      "inputs": [],
      "name": "decimals",
      "outputs": [
        {
          "internalType": "uint8",
          "name": "",
          "type": "uint8"
        }
      ],
      "stateMutability": "view",
      "type": "function"
    },
    {
      "inputs": [],
      "name": "getAllocations",
      "outputs": [
        {
          "internalType": "uint256",
          "name": "influencer",
          "type": "uint256"
        },
        {
          "internalType": "uint256",
          "name": "liquidity",
          "type": "uint256"
        }
      ],
      "stateMutability": "pure",
      "type": "function"
    },
    {
      "inputs": [],
      "name": "influencerWallet",
      "outputs": [
        {
          "internalType": "address",
          "name": "",
          "type": "address"
        }
      ],
      "stateMutability": "view",
      "type": "function"
    },
    {
      "inputs": [],
      "name": "name",
      "outputs": [
        {
          "internalType": "string",
          "name": "",
          "type": "string"
        }
      ],
      "stateMutability": "view",
      "type": "function"
    },
    {
      "inputs": [],
      "name": "owner",
      "outputs": [
        {
          "internalType": "address",
          "name": "",
          "type": "address"
        }
      ],
      "stateMutability": "view",
      "type": "function"
    },
    {
      "inputs": [],
      "name": "renounceOwnership",
      "outputs": [],
      "stateMutability": "nonpayable",
      "type": "function"
    },
    {
      "inputs": [],
      "name": "symbol",
      "outputs": [
        {
          "internalType": "string",
          "name": "",
          "type": "string"
        }
      ],
      "stateMutability": "view",
      "type": "function"
    },
    {
      "inputs": [],
      "name": "totalSupply",
      "outputs": [
        {
          "internalType": "uint256",
          "name": "",
          "type": "uint256"
        }
      ],
      "stateMutability": "view",
      "type": "function"
    },
    {
      "inputs": [
        {
          "internalType": "address",
          "name": "to",
          "type": "address"
        },
        {
          "internalType": "uint256",
          "name": "value",
          "type": "uint256"
        }
      ],
      "name": "transfer",
      "outputs": [
        {
          "internalType": "bool",
          "name": "",
          "type": "bool"
        }
      ],
      "stateMutability": "nonpayable",
      "type": "function"
    },
    {
      "inputs": [
        {
          "internalType": "address",
          "name": "from",
          "type": "address"
        },
        {
          "internalType": "address",
          "name": "to",
          "type": "address"
        },
        {
          "internalType": "uint256",
          "name": "value",
          "type": "uint256"
        }
      ],
      "name": "transferFrom",
      "outputs": [
        {
          "internalType": "bool",
          "name": "",
          "type": "bool"
        }
      ],
      "stateMutability": "nonpayable",
      "type": "function"
    },
    {
      "inputs": [
        {
          "internalType": "address",
          "name": "newOwner",
          "type": "address"
        }
      ],
      "name": "transferOwnership",
      "outputs": [],
      "stateMutability": "nonpayable",
      "type": "function"
    }
  ],
  "bytecode": "0x60806040523480156200001157600080fd5b5060405162000f4338038062000f43833981016040819052620000349162000389565b8084846003620000458382620004a7565b506004620000548282620004a7565b5050506001600160a01b0381166200008757604051631e4fbdf760e01b8152600060048201526024015b60405180910390fd5b6200009281620000e4565b50600680546001600160a01b0319166001600160a01b038416179055620000c482693f870857a3e0e380000062000136565b620000da8169943b1377290cbd80000062000136565b505050506200059b565b600580546001600160a01b038381166001600160a01b0319831681179093556040519116919082907f8be0079c531659141344cd1fd0a4f28419497f9722a3daafe3b4186f6b6457e090600090a35050565b6001600160a01b038216620001625760405163ec442f0560e01b8152600060048201526024016200007e565b620001706000838362000174565b5050565b6001600160a01b038316620001a357806002600082825462000197919062000573565b90915550620002179050565b6001600160a01b03831660009081526020819052604090205481811015620001f85760405163391434e360e21b81526001600160a01b038516600482015260248101829052604481018390526064016200007e565b6001600160a01b03841660009081526020819052604090209082900390555b6001600160a01b038216620002355760028054829003905562000254565b6001600160a01b03821660009081526020819052604090208054820190555b816001600160a01b0316836001600160a01b03167fddf252ad1be2c89b69c2b068fc378daa952ba7f163c4a11628f55a4df523b3ef836040516200029a91815260200190565b60405180910390a3505050565b634e487b7160e01b600052604160045260246000fd5b600082601f830112620002cf57600080fd5b81516001600160401b0380821115620002ec57620002ec620002a7565b604051601f8301601f19908116603f01168101908282118183101715620003175762000317620002a7565b816040528381526020925086838588010111156200033457600080fd5b600091505b8382101562000358578582018301518183018401529082019062000339565b600093810190920192909252949350505050565b80516001600160a01b03811681146200038457600080fd5b919050565b60008060008060808587031215620003a057600080fd5b84516001600160401b0380821115620003b857600080fd5b620003c688838901620002bd565b95506020870151915080821115620003dd57600080fd5b50620003ec87828801620002bd565b935050620003fd604086016200036c565b91506200040d606086016200036c565b905092959194509250565b600181811c908216806200042d57607f821691505b6020821081036200044e57634e487b7160e01b600052602260045260246000fd5b50919050565b601f821115620004a257600081815260208120601f850160051c810160208610156200047d5750805b601f850160051c820191505b818110156200049e5782815560010162000489565b5050505b505050565b81516001600160401b03811115620004c357620004c3620002a7565b620004db81620004d4845462000418565b8462000454565b602080601f831160018114620005135760008415620004fa5750858301515b600019600386901b1c1916600185901b1785556200049e565b600085815260208120601f198616915b82811015620005445788860151825594840194600190910190840162000523565b5085821015620005635787850151600019600388901b60f8161c191681555b5050505050600190811b01905550565b808201808211156200059557634e487b7160e01b600052601160045260246000fd5b92915050565b61099880620005ab6000396000f3fe608060405234801561001057600080fd5b50600436106101165760003560e01c8063715018a6116100a2578063a9059cbb11610071578063a9059cbb14610252578063bf1271d914610265578063dd62ed3e14610276578063f2fde38b146102af578063f9428f38146102c257600080fd5b8063715018a6146102205780638da5cb5b14610228578063902d55a51461023957806395d89b411461024a57600080fd5b8063313ce567116100e9578063313ce5671461018157806342966c68146101905780635c49a1dd146101a557806365ed6e23146101d057806370a08231146101f757600080fd5b806306fdde031461011b578063095ea7b31461013957806318160ddd1461015c57806323b872dd1461016e575b600080fd5b6101236102d3565b60405161013091906107c9565b60405180910390f35b61014c610147366004610833565b610365565b6040519015158152602001610130565b6002545b604051908152602001610130565b61014c61017c36600461085d565b61037f565b60405160128152602001610130565b6101a361019e366004610899565b6103a3565b005b6006546101b8906001600160a01b031681565b6040516001600160a01b039091168152602001610130565b60408051693f870857a3e0e3800000815269943b1377290cbd800000602082015201610130565b6101606102053660046108b2565b6001600160a01b031660009081526020819052604090205490565b6101a36103b0565b6005546001600160a01b03166101b8565b61016069d3c21bcecceda100000081565b6101236103c4565b61014c610260366004610833565b6103d3565b610160693f870857a3e0e380000081565b6101606102843660046108d4565b6001600160a01b03918216600090815260016020908152604080832093909416825291909152205490565b6101a36102bd3660046108b2565b6103e1565b61016069943b1377290cbd80000081565b6060600380546102e290610907565b80601f016020809104026020016040519081016040528092919081815260200182805461030e90610907565b801561035b5780601f106103305761010080835404028352916020019161035b565b820191906000526020600020905b81548152906001019060200180831161033e57829003601f168201915b5050505050905090565b600033610373818585610421565b60019150505b92915050565b60003361038d858285610433565b6103988585856104b2565b506001949350505050565b6103ad3382610511565b50565b6103b861054b565b6103c26000610578565b565b6060600480546102e290610907565b6000336103738185856104b2565b6103e961054b565b6001600160a01b03811661041857604051631e4fbdf760e01b8152600060048201526024015b60405180910390fd5b6103ad81610578565b61042e83838360016105ca565b505050565b6001600160a01b038381166000908152600160209081526040808320938616835292905220546000198110156104ac578181101561049d57604051637dc7a0d960e11b81526001600160a01b0384166004820152602481018290526044810183905260640161040f565b6104ac848484840360006105ca565b50505050565b6001600160a01b0383166104dc57604051634b637e8f60e11b81526000600482015260240161040f565b6001600160a01b0382166105065760405163ec442f0560e01b81526000600482015260240161040f565b61042e83838361069f565b6001600160a01b03821661053b57604051634b637e8f60e11b81526000600482015260240161040f565b6105478260008361069f565b5050565b6005546001600160a01b031633146103c25760405163118cdaa760e01b815233600482015260240161040f565b600580546001600160a01b038381166001600160a01b0319831681179093556040519116919082907f8be0079c531659141344cd1fd0a4f28419497f9722a3daafe3b4186f6b6457e090600090a35050565b6001600160a01b0384166105f45760405163e602df0560e01b81526000600482015260240161040f565b6001600160a01b03831661061e57604051634a1406b160e11b81526000600482015260240161040f565b6001600160a01b03808516600090815260016020908152604080832093871683529290522082905580156104ac57826001600160a01b0316846001600160a01b03167f8c5be1e5ebec7d5bd14f71427d1e84f3dd0314c0f7b2291e5b200ac8c7c3b9258460405161069191815260200190565b60405180910390a350505050565b6001600160a01b0383166106ca5780600260008282546106bf9190610941565b9091555061073c9050565b6001600160a01b0383166000908152602081905260409020548181101561071d5760405163391434e360e21b81526001600160a01b0385166004820152602481018290526044810183905260640161040f565b6001600160a01b03841660009081526020819052604090209082900390555b6001600160a01b03821661075857600280548290039055610777565b6001600160a01b03821660009081526020819052604090208054820190555b816001600160a01b0316836001600160a01b03167fddf252ad1be2c89b69c2b068fc378daa952ba7f163c4a11628f55a4df523b3ef836040516107bc91815260200190565b60405180910390a3505050565b600060208083528351808285015260005b818110156107f6578581018301518582016040015282016107da565b506000604082860101526040601f19601f8301168501019250505092915050565b80356001600160a01b038116811461082e57600080fd5b919050565b6000806040838503121561084657600080fd5b61084f83610817565b946020939093013593505050565b60008060006060848603121561087257600080fd5b61087b84610817565b925061088960208501610817565b9150604084013590509250925092565b6000602082840312156108ab57600080fd5b5035919050565b6000602082840312156108c457600080fd5b6108cd82610817565b9392505050565b600080604083850312156108e757600080fd5b6108f083610817565b91506108fe60208401610817565b90509250929050565b600181811c9082168061091b57607f821691505b60208210810361093b57634e487b7160e01b600052602260045260246000fd5b50919050565b8082018082111561037957634e487b7160e01b600052601160045260246000fdfea26469706673582212207b199a6e1eb7ea7cac4b0625b908b8d0a6ab5661e4b8cb119b34ca5c3fa324ff64736f6c63430008140033",
  "linkReferences": {},
  "deployedLinkReferences": {}
}